{
  "_format": "hh-sol-artifact-1",
  "contractName": "MarsPredictionMarket",
  "sourceName": "contracts/MarsPredictionMarket.sol",
  "abi": [
    {
      "anonymous": false,
      "inputs": [
        {
          "indexed": true,
          "internalType": "address",
          "name": "previousOwner",
          "type": "address"
        },
        {
          "indexed": true,
          "internalType": "address",
          "name": "newOwner",
          "type": "address"
        }
      ],
      "name": "OwnershipTransferred",
      "type": "event"
    },
    {
      "anonymous": false,
      "inputs": [
        {
          "indexed": true,
          "internalType": "address",
          "name": "_account",
          "type": "address"
        },
        {
          "indexed": false,
          "internalType": "bytes16",
          "name": "_outcome",
          "type": "bytes16"
        },
        {
          "indexed": false,
          "internalType": "uint256",
          "name": "_amount",
          "type": "uint256"
        }
      ],
      "name": "PredictionEvent",
      "type": "event"
    },
    {
      "inputs": [
        {
          "internalType": "bytes16",
          "name": "uuid",
          "type": "bytes16"
        },
        {
          "internalType": "uint8",
          "name": "position",
          "type": "uint8"
        },
        {
          "internalType": "string",
          "name": "name",
          "type": "string"
        }
      ],
      "name": "addOutcome",
      "outputs": [],
      "stateMutability": "nonpayable",
      "type": "function"
    },
    {
      "inputs": [
        {
          "internalType": "address",
          "name": "",
          "type": "address"
        }
      ],
      "name": "claimed",
      "outputs": [
        {
          "internalType": "bool",
          "name": "",
          "type": "bool"
        }
      ],
      "stateMutability": "view",
      "type": "function"
    },
    {
      "inputs": [],
      "name": "collectOracleFee",
      "outputs": [],
      "stateMutability": "nonpayable",
      "type": "function"
    },
    {
      "inputs": [],
      "name": "collectProtocolFee",
      "outputs": [],
      "stateMutability": "nonpayable",
      "type": "function"
    },
    {
      "inputs": [],
      "name": "endSharePrice",
      "outputs": [
        {
          "internalType": "uint256",
          "name": "",
          "type": "uint256"
        }
      ],
      "stateMutability": "view",
      "type": "function"
    },
    {
      "inputs": [],
      "name": "getNumberOfOutcomes",
      "outputs": [
        {
          "internalType": "uint256",
          "name": "",
          "type": "uint256"
        }
      ],
      "stateMutability": "view",
      "type": "function"
    },
    {
      "inputs": [],
      "name": "getPredictionTimeEnd",
      "outputs": [
        {
          "internalType": "uint256",
          "name": "",
          "type": "uint256"
        }
      ],
      "stateMutability": "view",
      "type": "function"
    },
    {
      "inputs": [],
      "name": "getReward",
      "outputs": [],
      "stateMutability": "nonpayable",
      "type": "function"
    },
    {
      "inputs": [
        {
          "internalType": "uint256",
          "name": "_currentTime",
          "type": "uint256"
        }
      ],
      "name": "getSharePrice",
      "outputs": [
        {
          "internalType": "uint256",
          "name": "",
          "type": "uint256"
        }
      ],
      "stateMutability": "view",
      "type": "function"
    },
    {
      "inputs": [
        {
          "internalType": "bytes16",
          "name": "outcomeUuid",
          "type": "bytes16"
        }
      ],
      "name": "getTokenOutcomeAddress",
      "outputs": [
        {
          "internalType": "address",
          "name": "",
          "type": "address"
        }
      ],
      "stateMutability": "view",
      "type": "function"
    },
    {
      "inputs": [
        {
          "internalType": "address",
          "name": "_wallet",
          "type": "address"
        },
        {
          "internalType": "uint256",
          "name": "_currentTime",
          "type": "uint256"
        }
      ],
      "name": "getUserPredictionState",
      "outputs": [
        {
          "components": [
            {
              "internalType": "bytes16",
              "name": "outcomeUuid",
              "type": "bytes16"
            },
            {
              "internalType": "bool",
              "name": "suspended",
              "type": "bool"
            },
            {
              "internalType": "uint256",
              "name": "stakeAmount",
              "type": "uint256"
            },
            {
              "internalType": "uint256",
              "name": "currentReward",
              "type": "uint256"
            },
            {
              "internalType": "bool",
              "name": "rewardReceived",
              "type": "bool"
            },
            {
              "internalType": "uint256",
              "name": "sharePrice",
              "type": "uint256"
            },
            {
              "internalType": "uint256",
              "name": "outcomeBalance",
              "type": "uint256"
            }
          ],
          "internalType": "struct Market.UserOutcomeInfo[]",
          "name": "",
          "type": "tuple[]"
        }
      ],
      "stateMutability": "view",
      "type": "function"
    },
    {
      "inputs": [
        {
          "internalType": "address",
          "name": "_token",
          "type": "address"
        },
        {
          "internalType": "uint256",
          "name": "_predictionTimeEnd",
          "type": "uint256"
        },
        {
          "components": [
            {
              "internalType": "bytes16",
              "name": "uuid",
              "type": "bytes16"
            },
            {
              "internalType": "uint8",
              "name": "position",
              "type": "uint8"
            },
            {
              "internalType": "string",
              "name": "name",
              "type": "string"
            }
          ],
          "internalType": "struct Market.Outcome[]",
          "name": "outcomes",
          "type": "tuple[]"
        },
        {
          "internalType": "address",
          "name": "owner",
          "type": "address"
        },
        {
          "internalType": "uint256",
          "name": "_startSharePrice",
          "type": "uint256"
        },
        {
          "internalType": "uint256",
          "name": "_endSharePrice",
          "type": "uint256"
        }
      ],
      "name": "initialize",
      "outputs": [],
      "stateMutability": "nonpayable",
      "type": "function"
    },
    {
      "inputs": [
        {
          "internalType": "bytes16",
          "name": "_outcome",
          "type": "bytes16"
        },
        {
          "internalType": "uint256",
          "name": "_currentTime",
          "type": "uint256"
        },
        {
          "internalType": "uint256",
          "name": "notFee",
          "type": "uint256"
        },
        {
          "internalType": "uint256",
          "name": "feeDivisor",
          "type": "uint256"
        }
      ],
      "name": "isPredictionProfitable",
      "outputs": [
        {
          "internalType": "bool",
          "name": "",
          "type": "bool"
        }
      ],
      "stateMutability": "view",
      "type": "function"
    },
    {
      "inputs": [],
      "name": "oracleFeeAccumulated",
      "outputs": [
        {
          "internalType": "uint256",
          "name": "",
          "type": "uint256"
        }
      ],
      "stateMutability": "view",
      "type": "function"
    },
    {
      "inputs": [],
      "name": "owner",
      "outputs": [
        {
          "internalType": "address",
          "name": "",
          "type": "address"
        }
      ],
      "stateMutability": "view",
      "type": "function"
    },
    {
      "inputs": [
        {
          "internalType": "bytes16",
          "name": "_outcome",
          "type": "bytes16"
        },
        {
          "internalType": "uint256",
          "name": "_amount",
          "type": "uint256"
        }
      ],
      "name": "predict",
      "outputs": [],
      "stateMutability": "nonpayable",
      "type": "function"
    },
    {
      "inputs": [],
      "name": "predictionTimeEnd",
      "outputs": [
        {
          "internalType": "uint256",
          "name": "",
          "type": "uint256"
        }
      ],
      "stateMutability": "view",
      "type": "function"
    },
    {
      "inputs": [],
      "name": "predictionTimeStart",
      "outputs": [
        {
          "internalType": "uint256",
          "name": "",
          "type": "uint256"
        }
      ],
      "stateMutability": "view",
      "type": "function"
    },
    {
      "inputs": [],
      "name": "predictorsNumber",
      "outputs": [
        {
          "internalType": "uint256",
          "name": "",
          "type": "uint256"
        }
      ],
      "stateMutability": "view",
      "type": "function"
    },
    {
      "inputs": [],
      "name": "protocolFeeAccumulated",
      "outputs": [
        {
          "internalType": "uint256",
          "name": "",
          "type": "uint256"
        }
      ],
      "stateMutability": "view",
      "type": "function"
    },
    {
      "inputs": [],
      "name": "renounceOwnership",
      "outputs": [],
      "stateMutability": "nonpayable",
      "type": "function"
    },
    {
      "inputs": [
        {
          "internalType": "address",
          "name": "_newParameters",
          "type": "address"
        }
      ],
      "name": "setParameters",
      "outputs": [],
      "stateMutability": "nonpayable",
      "type": "function"
    },
    {
      "inputs": [
        {
          "internalType": "uint256",
          "name": "_newValue",
          "type": "uint256"
        }
      ],
      "name": "setPredictionTimeEnd",
      "outputs": [],
      "stateMutability": "nonpayable",
      "type": "function"
    },
    {
      "inputs": [
        {
          "internalType": "address",
          "name": "_newSettlement",
          "type": "address"
        }
      ],
      "name": "setSettlement",
      "outputs": [],
      "stateMutability": "nonpayable",
      "type": "function"
    },
    {
      "inputs": [],
      "name": "startSharePrice",
      "outputs": [
        {
          "internalType": "uint256",
          "name": "",
          "type": "uint256"
        }
      ],
      "stateMutability": "view",
      "type": "function"
    },
    {
      "inputs": [],
      "name": "token",
      "outputs": [
        {
          "internalType": "contract IERC20",
          "name": "",
          "type": "address"
        }
      ],
      "stateMutability": "view",
      "type": "function"
    },
    {
      "inputs": [
        {
          "internalType": "bytes16",
          "name": "",
          "type": "bytes16"
        }
      ],
      "name": "tokenOutcomeAddress",
      "outputs": [
        {
          "internalType": "address",
          "name": "",
          "type": "address"
        }
      ],
      "stateMutability": "view",
      "type": "function"
    },
    {
      "inputs": [],
      "name": "totalPredicted",
      "outputs": [
        {
          "internalType": "uint256",
          "name": "",
          "type": "uint256"
        }
      ],
      "stateMutability": "view",
      "type": "function"
    },
    {
      "inputs": [
        {
          "internalType": "address",
          "name": "newOwner",
          "type": "address"
        }
      ],
      "name": "transferOwnership",
      "outputs": [],
      "stateMutability": "nonpayable",
      "type": "function"
    },
    {
      "inputs": [],
      "name": "winningOutcome",
      "outputs": [
        {
          "internalType": "bytes16",
          "name": "",
          "type": "bytes16"
        }
      ],
      "stateMutability": "view",
      "type": "function"
    }
  ],
  "bytecode": "0x608060405234801561001057600080fd5b50614423806100206000396000f3fe60806040523480156200001157600080fd5b5060043610620002085760003560e01c80638da5cb5b116200011d578063caa4b46a11620000b1578063f9082c01116200007b578063f9082c011462000436578063fc0c546a146200044d578063fc982cbd1462000461578063ffebbea7146200046b5762000208565b8063caa4b46a14620003f4578063e05dd90114620003fe578063e17653971462000408578063f2fde38b146200041f5762000208565b80639b34ae0311620000f35780639b34ae031462000385578063bca7d4e114620003ad578063be1c4a2d14620003c4578063c884ef8314620003ce5762000208565b80638da5cb5b14620003525780638f4e6f37146200036457806395a84751146200037b5762000208565b80634238407911620001a1578063715018a6116200016b578063715018a614620002ce57806372bcc38314620002d857806377aaa0bb14620003045780638438e2d0146200032a5762000208565b8063423840791462000299578063490377a714620002a357806351a95f4414620002ba5780635ab72c9c14620002c45762000208565b806327ce5b8c11620001e357806327ce5b8c14620002735780632ac00986146200027c578063358fac1c14620002865780633d18b912146200028f5762000208565b806301e8350a146200020d57806308b995b1146200022a57806327834ef6146200025a575b600080fd5b6200021760665481565b6040519081526020015b60405180910390f35b620002416200023b36600462002e30565b62000482565b6040516001600160a01b03909116815260200162000221565b620002716200026b36600462002c97565b620004ab565b005b60655462000217565b62000217606d5481565b60675462000217565b6200027162000701565b62000217606a5481565b62000271620002b436600462002c24565b62000c2c565b6200027162000cb7565b6200021760695481565b6200027162000f0d565b62000241620002e936600462002e30565b606f602052600090815260409020546001600160a01b031681565b6200031b6200031536600462002c69565b62000fc0565b60405162000221919062002f63565b620003416200033b36600462002e8e565b620016b5565b604051901515815260200162000221565b6033546001600160a01b031662000241565b620002716200037536600462002c24565b620016d0565b6200021760675481565b606c54620003939060801b81565b6040516001600160801b0319909116815260200162000221565b62000217620003be36600462002f31565b6200175b565b6200021760685481565b62000341620003df36600462002c24565b60716020526000908152604090205460ff1681565b620002716200176e565b6200021760705481565b620002716200041936600462002f31565b62001bc3565b620002716200043036600462002c24565b62001d18565b620002716200044736600462002e6e565b62001e5b565b606b5462000241906001600160a01b031681565b62000217606e5481565b620002716200047c36600462002ecb565b62002508565b6001600160801b031981166000908152606f60205260409020546001600160a01b03165b919050565b600054610100900460ff1680620004c5575060005460ff16155b6200053d5760405162461bcd60e51b815260206004820152602e60248201527f496e697469616c697a61626c653a20636f6e747261637420697320616c72656160448201527f647920696e697469616c697a656400000000000000000000000000000000000060648201526084015b60405180910390fd5b600054610100900460ff1615801562000569576000805460ff1961ff0019909116610100171660011790555b42606681905560678790558611620005ea5760405162461bcd60e51b815260206004820152602660248201527f456e6474696d652068617320746f206265206d6f7265207468656e207374617260448201527f742074696d650000000000000000000000000000000000000000000000000000606482015260840162000534565b620005f462002576565b620005ff8462001d18565b60005b8551811015620006b2576200069d8682815181106200063157634e487b7160e01b600052603260045260246000fd5b6020026020010151600001518783815181106200065e57634e487b7160e01b600052603260045260246000fd5b6020026020010151602001518884815181106200068b57634e487b7160e01b600052603260045260246000fd5b60200260200101516040015162002659565b80620006a981620030a1565b91505062000602565b50606b805473ffffffffffffffffffffffffffffffffffffffff19166001600160a01b0389161790556069839055606a8290558015620006f8576000805461ff00191690555b50505050505050565b3360009081526071602052604090205460ff1615620007635760405162461bcd60e51b815260206004820152601460248201527f5573657220616c726561647920636c61696d6564000000000000000000000000604482015260640162000534565b336000908152607160205260409020805460ff19166001179055606c5460801b6001600160801b0319811662000846576072546040517f215b6c230000000000000000000000000000000000000000000000000000000081523060048201526001600160a01b039091169063215b6c2390602401602060405180830381600087803b158015620007f257600080fd5b505af115801562000807573d6000803e3d6000fd5b505050506040513d601f19601f820116820180604052508101906200082d919062002e4f565b606c80546001600160801b031916608083901c17905590505b6001600160801b031981166000908152606f60205260408082205490517f70a082310000000000000000000000000000000000000000000000000000000081523360048201526001600160a01b03909116906370a082319060240160206040518083038186803b158015620008ba57600080fd5b505afa158015620008cf573d6000803e3d6000fd5b505050506040513d601f19601f82011682018060405250810190620008f5919062002f4a565b6001600160801b031983166000908152606f602090815260408083205481517f18160ddd000000000000000000000000000000000000000000000000000000008152915194955092936001600160a01b03909316926318160ddd92600480840193919291829003018186803b1580156200096e57600080fd5b505afa15801562000983573d6000803e3d6000fd5b505050506040513d601f19601f82011682018060405250810190620009a9919062002f4a565b90508015620009b95780620009bc565b60015b905060008160705484620009d1919062003065565b620009dd919062003044565b6001600160801b031985166000908152606f6020526040908190205490517f23b872dd000000000000000000000000000000000000000000000000000000008152336004820152306024820152604481018690529192506001600160a01b0316906323b872dd90606401602060405180830381600087803b15801562000a6257600080fd5b505af115801562000a77573d6000803e3d6000fd5b505050506040513d601f19601f8201168201806040525081019062000a9d919062002e0e565b62000b115760405162461bcd60e51b815260206004820152602360248201527f4d4152533a204661696c656420746f207472616e736665722066726f6d20627560448201527f7965720000000000000000000000000000000000000000000000000000000000606482015260840162000534565b606b546040517fa9059cbb000000000000000000000000000000000000000000000000000000008152336004820152602481018390526001600160a01b039091169063a9059cbb90604401602060405180830381600087803b15801562000b7757600080fd5b505af115801562000b8c573d6000803e3d6000fd5b505050506040513d601f19601f8201168201806040525081019062000bb2919062002e0e565b62000c265760405162461bcd60e51b815260206004820152602160248201527f4d4152533a204661696c656420746f207472616e7366657220746f206275796560448201527f7200000000000000000000000000000000000000000000000000000000000000606482015260840162000534565b50505050565b6033546001600160a01b0316331462000c885760405162461bcd60e51b815260206004820181905260248201527f4f776e61626c653a2063616c6c6572206973206e6f7420746865206f776e6572604482015260640162000534565b6073805473ffffffffffffffffffffffffffffffffffffffff19166001600160a01b0392909216919091179055565b6072546040517f15ae31890000000000000000000000000000000000000000000000000000000081523060048201523360248201526001600160a01b03909116906315ae318990604401602060405180830381600087803b15801562000d1c57600080fd5b505af115801562000d31573d6000803e3d6000fd5b505050506040513d601f19601f8201168201806040525081019062000d57919062002e0e565b62000d6157600080fd5b6072546040517f2e07bda10000000000000000000000000000000000000000000000000000000081523060048201526000916001600160a01b031690632e07bda19060240160206040518083038186803b15801562000dbf57600080fd5b505afa15801562000dd4573d6000803e3d6000fd5b505050506040513d601f19601f8201168201806040525081019062000dfa919062002f4a565b606b54606d549192506001600160a01b03169063a9059cbb90339062000e2290859062003044565b6040517fffffffff0000000000000000000000000000000000000000000000000000000060e085901b1681526001600160a01b0390921660048301526024820152604401602060405180830381600087803b15801562000e8157600080fd5b505af115801562000e96573d6000803e3d6000fd5b505050506040513d601f19601f8201168201806040525081019062000ebc919062002e0e565b62000f0a5760405162461bcd60e51b815260206004820152601960248201527f4661696c656420746f207472616e7366657220616d6f756e7400000000000000604482015260640162000534565b50565b6033546001600160a01b0316331462000f695760405162461bcd60e51b815260206004820181905260248201527f4f776e61626c653a2063616c6c6572206973206e6f7420746865206f776e6572604482015260640162000534565b6033546040516000916001600160a01b0316907f8be0079c531659141344cd1fd0a4f28419497f9722a3daafe3b4186f6b6457e0908390a36033805473ffffffffffffffffffffffffffffffffffffffff19169055565b60655460609060009067ffffffffffffffff81111562000ff057634e487b7160e01b600052604160045260246000fd5b6040519080825280602002602001820160405280156200105957816020015b6040805160e08101825260008082526020808301829052928201819052606082018190526080820181905260a0820181905260c082015282526000199092019101816200100f5790505b5090506000607360009054906101000a90046001600160a01b03166001600160a01b031663a5a410316040518163ffffffff1660e01b815260040160206040518083038186803b158015620010ad57600080fd5b505afa158015620010c2573d6000803e3d6000fd5b505050506040513d601f19601f82011682018060405250810190620010e8919062002f4a565b90506000607360009054906101000a90046001600160a01b03166001600160a01b031663ade1c5806040518163ffffffff1660e01b815260040160206040518083038186803b1580156200113b57600080fd5b505afa15801562001150573d6000803e3d6000fd5b505050506040513d601f19601f8201168201806040525081019062001176919062002f4a565b90506000607360009054906101000a90046001600160a01b03166001600160a01b031663e5eb6ab56040518163ffffffff1660e01b815260040160206040518083038186803b158015620011c957600080fd5b505afa158015620011de573d6000803e3d6000fd5b505050506040513d601f19601f8201168201806040525081019062001204919062002f4a565b905060008262001215858462003087565b62001221919062003087565b905060005b606554811015620016a8576000606582815481106200125557634e487b7160e01b600052603260045260246000fd5b6000918252602080832060028304015460019092166010026101000a90910460801b6001600160801b031981168352606f90915260409091205488519192506001600160a01b0316908290899085908110620012c157634e487b7160e01b600052603260045260246000fd5b60209081029190910101516001600160801b03199190911690526040517ff99318550000000000000000000000000000000000000000000000000000000081526001600160a01b038c8116600483015282169063f99318559060240160206040518083038186803b1580156200133657600080fd5b505afa1580156200134b573d6000803e3d6000fd5b505050506040513d601f19601f8201168201806040525081019062001371919062002f4a565b8884815181106200139257634e487b7160e01b600052603260045260246000fd5b602002602001015160400181815250506000816001600160a01b03166318160ddd6040518163ffffffff1660e01b815260040160206040518083038186803b158015620013de57600080fd5b505afa158015620013f3573d6000803e3d6000fd5b505050506040513d601f19601f8201168201806040525081019062001419919062002f4a565b905080156200153e57606c5460801b6001600160801b0319161580620014515750606c5460801b6001600160801b0319908116908416145b156200153e576070546040517f70a082310000000000000000000000000000000000000000000000000000000081526001600160a01b038e81166004830152839291908516906370a082319060240160206040518083038186803b158015620014b957600080fd5b505afa158015620014ce573d6000803e3d6000fd5b505050506040513d601f19601f82011682018060405250810190620014f4919062002f4a565b62001500919062003065565b6200150c919062003044565b8985815181106200152d57634e487b7160e01b600052603260045260246000fd5b602002602001015160600181815250505b606c5460801b6001600160801b031990811690841614620015615760006200157e565b6001600160a01b038c1660009081526071602052604090205460ff165b8985815181106200159f57634e487b7160e01b600052603260045260246000fd5b6020026020010151608001901515908115158152505080898581518110620015d757634e487b7160e01b600052603260045260246000fd5b602002602001015160c00181815250506067548b1180620015f957506066548b105b806200161057506200160e838c8789620027ce565b155b6200161d57600062001620565b60015b8985815181106200164157634e487b7160e01b600052603260045260246000fd5b6020908102919091018101519115159101526200165e8b620028f0565b8985815181106200167f57634e487b7160e01b600052603260045260246000fd5b602002602001015160a001818152505050505080806200169f90620030a1565b91505062001226565b5093979650505050505050565b6000620016c585858585620027ce565b90505b949350505050565b6033546001600160a01b031633146200172c5760405162461bcd60e51b815260206004820181905260248201527f4f776e61626c653a2063616c6c6572206973206e6f7420746865206f776e6572604482015260640162000534565b6072805473ffffffffffffffffffffffffffffffffffffffff19166001600160a01b0392909216919091179055565b60006200176882620028f0565b92915050565b6033546001600160a01b03163314620017ca5760405162461bcd60e51b815260206004820181905260248201527f4f776e61626c653a2063616c6c6572206973206e6f7420746865206f776e6572604482015260640162000534565b6072546040517f2e07bda10000000000000000000000000000000000000000000000000000000081523060048201526001600160a01b0390911690632e07bda19060240160206040518083038186803b1580156200182757600080fd5b505afa1580156200183c573d6000803e3d6000fd5b505050506040513d601f19601f8201168201806040525081019062001862919062002f4a565b1580156200187e5750606c5460801b6001600160801b03191615155b1562001a2d57606b54607354604080517f98aca92200000000000000000000000000000000000000000000000000000000815290516001600160a01b039384169363a9059cbb9316916398aca922916004808301926020929190829003018186803b158015620018ed57600080fd5b505afa15801562001902573d6000803e3d6000fd5b505050506040513d601f19601f8201168201806040525081019062001928919062002c4a565b606e54606d546200193a919062003029565b6040517fffffffff0000000000000000000000000000000000000000000000000000000060e085901b1681526001600160a01b0390921660048301526024820152604401602060405180830381600087803b1580156200199957600080fd5b505af1158015620019ae573d6000803e3d6000fd5b505050506040513d601f19601f82011682018060405250810190620019d4919062002e0e565b62001a225760405162461bcd60e51b815260206004820152601960248201527f4661696c656420746f207472616e7366657220616d6f756e7400000000000000604482015260640162000534565b6000606d5562001bbc565b606b54607354604080517f98aca92200000000000000000000000000000000000000000000000000000000815290516001600160a01b039384169363a9059cbb9316916398aca922916004808301926020929190829003018186803b15801562001a9657600080fd5b505afa15801562001aab573d6000803e3d6000fd5b505050506040513d601f19601f8201168201806040525081019062001ad1919062002c4a565b606e546040517fffffffff0000000000000000000000000000000000000000000000000000000060e085901b1681526001600160a01b0390921660048301526024820152604401602060405180830381600087803b15801562001b3357600080fd5b505af115801562001b48573d6000803e3d6000fd5b505050506040513d601f19601f8201168201806040525081019062001b6e919062002e0e565b62001bbc5760405162461bcd60e51b815260206004820152601960248201527f4661696c656420746f207472616e7366657220616d6f756e7400000000000000604482015260640162000534565b6000606e55565b6033546001600160a01b0316331462001c1f5760405162461bcd60e51b815260206004820181905260248201527f4f776e61626c653a2063616c6c6572206973206e6f7420746865206f776e6572604482015260640162000534565b606754811062001c985760405162461bcd60e51b815260206004820152602b60248201527f4d41524b45543a2043414e204f4e4c592044454352454153452070726564696360448201527f74696f6e54696d65456e64000000000000000000000000000000000000000000606482015260840162000534565b6066546067541162001d135760405162461bcd60e51b815260206004820152602660248201527f456e6474696d652068617320746f206265206d6f7265207468656e207374617260448201527f742074696d650000000000000000000000000000000000000000000000000000606482015260840162000534565b606755565b6033546001600160a01b0316331462001d745760405162461bcd60e51b815260206004820181905260248201527f4f776e61626c653a2063616c6c6572206973206e6f7420746865206f776e6572604482015260640162000534565b6001600160a01b03811662001df25760405162461bcd60e51b815260206004820152602660248201527f4f776e61626c653a206e6577206f776e657220697320746865207a65726f206160448201527f6464726573730000000000000000000000000000000000000000000000000000606482015260840162000534565b6033546040516001600160a01b038084169216907f8be0079c531659141344cd1fd0a4f28419497f9722a3daafe3b4186f6b6457e090600090a36033805473ffffffffffffffffffffffffffffffffffffffff19166001600160a01b0392909216919091179055565b6001600160801b031982166000908152606f602052604090205482906001600160a01b031662001ece5760405162461bcd60e51b815260206004820152601960248201527f4d6172733a206f7574636f6d65206e6f7420646566696e656400000000000000604482015260640162000534565b606754421062001f215760405162461bcd60e51b815260206004820181905260248201527f4d4152533a2050726564696374696f6e2074696d652068617320706173736564604482015260640162000534565b606b546040517f23b872dd000000000000000000000000000000000000000000000000000000008152336004820152306024820152604481018490526001600160a01b03909116906323b872dd90606401602060405180830381600087803b15801562001f8d57600080fd5b505af115801562001fa2573d6000803e3d6000fd5b505050506040513d601f19601f8201168201806040525081019062001fc8919062002e0e565b6200203c5760405162461bcd60e51b815260206004820152602360248201527f4d4152533a204661696c656420746f207472616e736665722066726f6d20627560448201527f7965720000000000000000000000000000000000000000000000000000000000606482015260840162000534565b607354604080517fa5a4103100000000000000000000000000000000000000000000000000000000815290516000926001600160a01b03169163a5a41031916004808301926020929190829003018186803b1580156200209b57600080fd5b505afa158015620020b0573d6000803e3d6000fd5b505050506040513d601f19601f82011682018060405250810190620020d6919062002f4a565b90506000607360009054906101000a90046001600160a01b03166001600160a01b031663ade1c5806040518163ffffffff1660e01b815260040160206040518083038186803b1580156200212957600080fd5b505afa1580156200213e573d6000803e3d6000fd5b505050506040513d601f19601f8201168201806040525081019062002164919062002f4a565b90506000607360009054906101000a90046001600160a01b03166001600160a01b031663e5eb6ab56040518163ffffffff1660e01b815260040160206040518083038186803b158015620021b757600080fd5b505afa158015620021cc573d6000803e3d6000fd5b505050506040513d601f19601f82011682018060405250810190620021f2919062002f4a565b905060008262002203858462003087565b6200220f919062003087565b905060006200221e42620028f0565b836200222b848a62003065565b6200223a90620f424062003065565b62002246919062003044565b62002252919062003044565b90508262002261858962003065565b6200226d919062003044565b606d600082825462002280919062003029565b9091555083905062002293868962003065565b6200229f919062003044565b606e6000828254620022b2919062003029565b90915550506001600160801b031988166000908152606f60205260409020546001600160a01b031663156e29f6338386620022ee878d62003065565b620022fa919062003044565b6040517fffffffff0000000000000000000000000000000000000000000000000000000060e086901b1681526001600160a01b03909316600484015260248301919091526044820152606401602060405180830381600087803b1580156200236157600080fd5b505af115801562002376573d6000803e3d6000fd5b505050506040513d601f19601f820116820180604052508101906200239c919062002e0e565b620024105760405162461bcd60e51b815260206004820152602160248201527f4d4152533a204661696c656420746f207472616e7366657220746f206275796560448201527f7200000000000000000000000000000000000000000000000000000000000000606482015260840162000534565b60016068600082825462002425919062003029565b9091555083905062002438838962003065565b62002444919062003044565b6070600082825462002457919062003029565b909155506200246b905088428486620027ce565b620024b95760405162461bcd60e51b815260206004820152601c60248201527f50726564696374696f6e206973206e6f742070726f66697461626c6500000000604482015260640162000534565b604080516001600160801b03198a1681526020810183905233917fb402b7987e9ce78d4b96d9828d7c2c27c1c91033f0365ccf578f1c1806ccf583910160405180910390a25050505050505050565b6033546001600160a01b03163314620025645760405162461bcd60e51b815260206004820181905260248201527f4f776e61626c653a2063616c6c6572206973206e6f7420746865206f776e6572604482015260640162000534565b6200257183838362002659565b505050565b600054610100900460ff168062002590575060005460ff16155b620026045760405162461bcd60e51b815260206004820152602e60248201527f496e697469616c697a61626c653a20636f6e747261637420697320616c72656160448201527f647920696e697469616c697a6564000000000000000000000000000000000000606482015260840162000534565b600054610100900460ff1615801562002630576000805460ff1961ff0019909116610100171660011790555b6200263a62002978565b6200264462002a46565b801562000f0a576000805461ff001916905550565b606580546001808201835560009283527f8ff97419363ffd7000167f130ef7168fbea05faf9251824ca5043f113cc6a7c7600283040180546fffffffffffffffffffffffffffffffff929093166010026101000a91820219909216608087901c919091021790556012620026d56033546001600160a01b031690565b604051620026e39062002b85565b6080808252601a908201527f4d6172732045636f6e6f6d79206f7574636f6d6520746f6b656e00000000000060a082015260ff909216602083015260c0604083018190526003908301527f4d504f000000000000000000000000000000000000000000000000000000000060e08301526001600160a01b0316606082015261010001604051809103906000f08015801562002782573d6000803e3d6000fd5b506001600160801b0319949094166000908152606f60205260409020805473ffffffffffffffffffffffffffffffffffffffff19166001600160a01b0390951694909417909355505050565b6001600160801b031984166000908152606f602090815260408083205481517f18160ddd000000000000000000000000000000000000000000000000000000008152915184936001600160a01b03909216926318160ddd926004808301939192829003018186803b1580156200284357600080fd5b505afa15801562002858573d6000803e3d6000fd5b505050506040513d601f19601f820116820180604052508101906200287e919062002f4a565b90508015620028e45780607054620f42406200289b919062003065565b620028a7919062003044565b620028b490600162003029565b8385620028c188620028f0565b620028cd919062003065565b620028d9919062003044565b1115915050620016c8565b50600195945050505050565b600060675482118062002904575060665482105b156200291357506000620004a6565b60695460665460675462002928919062003087565b606954606a546200293a919062003087565b62002954606654866200294e919062003087565b62002b65565b62002960919062003065565b6200296c919062003044565b62001768919062003029565b600054610100900460ff168062002992575060005460ff16155b62002a065760405162461bcd60e51b815260206004820152602e60248201527f496e697469616c697a61626c653a20636f6e747261637420697320616c72656160448201527f647920696e697469616c697a6564000000000000000000000000000000000000606482015260840162000534565b600054610100900460ff1615801562002644576000805460ff1961ff001990911661010017166001179055801562000f0a576000805461ff001916905550565b600054610100900460ff168062002a60575060005460ff16155b62002ad45760405162461bcd60e51b815260206004820152602e60248201527f496e697469616c697a61626c653a20636f6e747261637420697320616c72656160448201527f647920696e697469616c697a6564000000000000000000000000000000000000606482015260840162000534565b600054610100900460ff1615801562002b00576000805460ff1961ff0019909116610100171660011790555b6033805473ffffffffffffffffffffffffffffffffffffffff19163390811790915560405181906000907f8be0079c531659141344cd1fd0a4f28419497f9722a3daafe3b4186f6b6457e0908290a350801562000f0a576000805461ff001916905550565b600062002b7662093a808362003044565b620017689062093a8062003065565b6112d5806200311983390190565b8035620004a681620030eb565b600082601f83011262002bb1578081fd5b813567ffffffffffffffff81111562002bce5762002bce620030d5565b62002be36020601f19601f8401160162002ff5565b81815284602083860101111562002bf8578283fd5b816020850160208301379081016020019190915292915050565b803560ff81168114620004a657600080fd5b60006020828403121562002c36578081fd5b813562002c4381620030eb565b9392505050565b60006020828403121562002c5c578081fd5b815162002c4381620030eb565b6000806040838503121562002c7c578081fd5b823562002c8981620030eb565b946020939093013593505050565b60008060008060008060c0878903121562002cb0578182fd5b62002cbc8735620030eb565b863595506020870135945067ffffffffffffffff6040880135111562002ce0578182fd5b6040870135870188601f82011262002cf6578283fd5b67ffffffffffffffff8135111562002d125762002d12620030d5565b62002d236020808335020162002ff5565b81358152602080820191908301855b843581101562002dde576060601f19833587018f0301121562002d53578687fd5b62002d5f606062002ff5565b62002d71602084358801013562003101565b823586016020810135825262002d8a9060400162002c12565b602082015267ffffffffffffffff6060843588010135111562002dab578788fd5b62002dc38e8435880160608101350160200162002ba0565b60408201528452602093840193919091019060010162002d32565b505080965050505062002df46060880162002b93565b92506080870135915060a087013590509295509295509295565b60006020828403121562002e20578081fd5b8151801515811462002c43578182fd5b60006020828403121562002e42578081fd5b813562002c438162003101565b60006020828403121562002e61578081fd5b815162002c438162003101565b6000806040838503121562002e81578182fd5b823562002c898162003101565b6000806000806080858703121562002ea4578384fd5b843562002eb18162003101565b966020860135965060408601359560600135945092505050565b60008060006060848603121562002ee0578283fd5b833562002eed8162003101565b925062002efd6020850162002c12565b9150604084013567ffffffffffffffff81111562002f19578182fd5b62002f278682870162002ba0565b9150509250925092565b60006020828403121562002f43578081fd5b5035919050565b60006020828403121562002f5c578081fd5b5051919050565b602080825282518282018190526000919060409081850190868401855b8281101562002fe857815180516001600160801b03191685528681015115158786015285810151868601526060808201519086015260808082015115159086015260a0808201519086015260c0908101519085015260e0909301929085019060010162002f80565b5091979650505050505050565b604051601f8201601f1916810167ffffffffffffffff81118282101715620030215762003021620030d5565b604052919050565b600082198211156200303f576200303f620030bf565b500190565b6000826200306057634e487b7160e01b81526012600452602481fd5b500490565b6000816000190483118215151615620030825762003082620030bf565b500290565b6000828210156200309c576200309c620030bf565b500390565b6000600019821415620030b857620030b8620030bf565b5060010190565b634e487b7160e01b600052601160045260246000fd5b634e487b7160e01b600052604160045260246000fd5b6001600160a01b038116811462000f0a57600080fd5b6001600160801b03198116811462000f0a57600080fdfe60806040523480156200001157600080fd5b50604051620012d5380380620012d583398101604081905262000034916200022d565b8351849083906200004d906003906020850190620000d4565b50805162000063906004906020840190620000d4565b505050600062000078620000d060201b60201c565b600580546001600160a01b0319166001600160a01b038316908117909155604051919250906000907f8be0079c531659141344cd1fd0a4f28419497f9722a3daafe3b4186f6b6457e0908290a3505050505062000321565b3390565b828054620000e290620002ce565b90600052602060002090601f01602090048101928262000106576000855562000151565b82601f106200012157805160ff191683800117855562000151565b8280016001018555821562000151579182015b828111156200015157825182559160200191906001019062000134565b506200015f92915062000163565b5090565b5b808211156200015f576000815560010162000164565b600082601f8301126200018b578081fd5b81516001600160401b0380821115620001a857620001a86200030b565b604051601f8301601f19908116603f01168101908282118183101715620001d357620001d36200030b565b81604052838152602092508683858801011115620001ef578485fd5b8491505b83821015620002125785820183015181830184015290820190620001f3565b838211156200022357848385830101525b9695505050505050565b6000806000806080858703121562000243578384fd5b84516001600160401b03808211156200025a578586fd5b62000268888389016200017a565b95506020870151915060ff8216821462000280578485fd5b60408701519194508082111562000295578384fd5b50620002a4878288016200017a565b606087015190935090506001600160a01b0381168114620002c3578182fd5b939692955090935050565b600281046001821680620002e357607f821691505b602082108114156200030557634e487b7160e01b600052602260045260246000fd5b50919050565b634e487b7160e01b600052604160045260246000fd5b610fa480620003316000396000f3fe608060405234801561001057600080fd5b506004361061011b5760003560e01c806370a08231116100b2578063a457c2d711610081578063dd62ed3e11610066578063dd62ed3e1461022a578063f2fde38b14610263578063f9931855146102765761011b565b8063a457c2d714610204578063a9059cbb146102175761011b565b806370a08231146101c4578063715018a6146101d75780638da5cb5b146101e157806395d89b41146101fc5761011b565b806323b872dd116100ee57806323b872dd14610186578063313ce5671461019957806339509351146101a8578063567e98f9146101bb5761011b565b806306fdde0314610120578063095ea7b31461013e578063156e29f61461016157806318160ddd14610174575b600080fd5b61012861029f565b6040516101359190610e20565b60405180910390f35b61015161014c366004610dc5565b610331565b6040519015158152602001610135565b61015161016f366004610dee565b610347565b6002545b604051908152602001610135565b610151610194366004610d8a565b610404565b60405160128152602001610135565b6101516101b6366004610dc5565b610427565b61017860075481565b6101786101d2366004610d37565b610463565b6101df610482565b005b6005546040516001600160a01b039091168152602001610135565b61012861053e565b610151610212366004610dc5565b61054d565b610151610225366004610dc5565b6105f6565b610178610238366004610d58565b6001600160a01b03918216600090815260016020908152604080832093909416825291909152205490565b6101df610271366004610d37565b61060d565b610178610284366004610d37565b6001600160a01b031660009081526006602052604090205490565b6060600380546102ae90610f1d565b80601f01602080910402602001604051908101604052809291908181526020018280546102da90610f1d565b80156103275780601f106102fc57610100808354040283529160200191610327565b820191906000526020600020905b81548152906001019060200180831161030a57829003601f168201915b5050505050905090565b600061033e338484610757565b50600192915050565b6005546000906001600160a01b031633146103a95760405162461bcd60e51b815260206004820181905260248201527f4f776e61626c653a2063616c6c6572206973206e6f7420746865206f776e657260448201526064015b60405180910390fd5b6001600160a01b038416600090815260066020526040812080548492906103d1908490610e91565b9250508190555081600760008282546103ea9190610e91565b909155506103fa905084846108af565b5060019392505050565b600061041184848461098e565b61041c848484610a40565b506001949350505050565b3360008181526001602090815260408083206001600160a01b0387168452909152812054909161033e91859061045e908690610e91565b610757565b6001600160a01b0381166000908152602081905260409020545b919050565b6005546001600160a01b031633146104dc5760405162461bcd60e51b815260206004820181905260248201527f4f776e61626c653a2063616c6c6572206973206e6f7420746865206f776e657260448201526064016103a0565b6005546040516000916001600160a01b0316907f8be0079c531659141344cd1fd0a4f28419497f9722a3daafe3b4186f6b6457e0908390a3600580547fffffffffffffffffffffffff0000000000000000000000000000000000000000169055565b6060600480546102ae90610f1d565b3360009081526001602090815260408083206001600160a01b0386168452909152812054828110156105e75760405162461bcd60e51b815260206004820152602560248201527f45524332303a2064656372656173656420616c6c6f77616e63652062656c6f7760448201527f207a65726f00000000000000000000000000000000000000000000000000000060648201526084016103a0565b6103fa338561045e8685610f06565b600061060333848461098e565b6103fa8383610af6565b6005546001600160a01b031633146106675760405162461bcd60e51b815260206004820181905260248201527f4f776e61626c653a2063616c6c6572206973206e6f7420746865206f776e657260448201526064016103a0565b6001600160a01b0381166106e35760405162461bcd60e51b815260206004820152602660248201527f4f776e61626c653a206e6577206f776e657220697320746865207a65726f206160448201527f646472657373000000000000000000000000000000000000000000000000000060648201526084016103a0565b6005546040516001600160a01b038084169216907f8be0079c531659141344cd1fd0a4f28419497f9722a3daafe3b4186f6b6457e090600090a3600580547fffffffffffffffffffffffff0000000000000000000000000000000000000000166001600160a01b0392909216919091179055565b6001600160a01b0383166107d25760405162461bcd60e51b8152602060048201526024808201527f45524332303a20617070726f76652066726f6d20746865207a65726f2061646460448201527f726573730000000000000000000000000000000000000000000000000000000060648201526084016103a0565b6001600160a01b03821661084e5760405162461bcd60e51b815260206004820152602260248201527f45524332303a20617070726f766520746f20746865207a65726f20616464726560448201527f737300000000000000000000000000000000000000000000000000000000000060648201526084016103a0565b6001600160a01b0383811660008181526001602090815260408083209487168084529482529182902085905590518481527f8c5be1e5ebec7d5bd14f71427d1e84f3dd0314c0f7b2291e5b200ac8c7c3b925910160405180910390a3505050565b6001600160a01b0382166109055760405162461bcd60e51b815260206004820152601f60248201527f45524332303a206d696e7420746f20746865207a65726f20616464726573730060448201526064016103a0565b80600260008282546109179190610e91565b90915550506001600160a01b03821660009081526020819052604081208054839290610944908490610e91565b90915550506040518181526001600160a01b038316906000907fddf252ad1be2c89b69c2b068fc378daa952ba7f163c4a11628f55a4df523b3ef9060200160405180910390a35050565b600061099984610463565b905060008115610a39576109ac85610463565b6001600160a01b0386166000908152600660205260409020546109cf9085610ec9565b6109d99190610ea9565b6001600160a01b038616600090815260066020526040812080549293508392909190610a06908490610f06565b90915550506001600160a01b03841660009081526006602052604081208054839290610a33908490610e91565b90915550505b5050505050565b6000610a4d848484610aff565b6001600160a01b038416600090815260016020908152604080832033845290915290205482811015610ae75760405162461bcd60e51b815260206004820152602860248201527f45524332303a207472616e7366657220616d6f756e742065786365656473206160448201527f6c6c6f77616e636500000000000000000000000000000000000000000000000060648201526084016103a0565b61041c853361045e8685610f06565b600061033e3384845b6001600160a01b038316610b7b5760405162461bcd60e51b815260206004820152602560248201527f45524332303a207472616e736665722066726f6d20746865207a65726f20616460448201527f647265737300000000000000000000000000000000000000000000000000000060648201526084016103a0565b6001600160a01b038216610bf75760405162461bcd60e51b815260206004820152602360248201527f45524332303a207472616e7366657220746f20746865207a65726f206164647260448201527f657373000000000000000000000000000000000000000000000000000000000060648201526084016103a0565b6001600160a01b03831660009081526020819052604090205481811015610c865760405162461bcd60e51b815260206004820152602660248201527f45524332303a207472616e7366657220616d6f756e742065786365656473206260448201527f616c616e6365000000000000000000000000000000000000000000000000000060648201526084016103a0565b610c908282610f06565b6001600160a01b038086166000908152602081905260408082209390935590851681529081208054849290610cc6908490610e91565b92505081905550826001600160a01b0316846001600160a01b03167fddf252ad1be2c89b69c2b068fc378daa952ba7f163c4a11628f55a4df523b3ef84604051610d1291815260200190565b60405180910390a350505050565b80356001600160a01b038116811461047d57600080fd5b600060208284031215610d48578081fd5b610d5182610d20565b9392505050565b60008060408385031215610d6a578081fd5b610d7383610d20565b9150610d8160208401610d20565b90509250929050565b600080600060608486031215610d9e578081fd5b610da784610d20565b9250610db560208501610d20565b9150604084013590509250925092565b60008060408385031215610dd7578182fd5b610de083610d20565b946020939093013593505050565b600080600060608486031215610e02578283fd5b610e0b84610d20565b95602085013595506040909401359392505050565b6000602080835283518082850152825b81811015610e4c57858101830151858201604001528201610e30565b81811115610e5d5783604083870101525b50601f017fffffffffffffffffffffffffffffffffffffffffffffffffffffffffffffffe016929092016040019392505050565b60008219821115610ea457610ea4610f58565b500190565b600082610ec457634e487b7160e01b81526012600452602481fd5b500490565b6000817fffffffffffffffffffffffffffffffffffffffffffffffffffffffffffffffff0483118215151615610f0157610f01610f58565b500290565b600082821015610f1857610f18610f58565b500390565b600281046001821680610f3157607f821691505b60208210811415610f5257634e487b7160e01b600052602260045260246000fd5b50919050565b634e487b7160e01b600052601160045260246000fdfea26469706673582212204e0f6abb97d737b5a036509ab473126c0078ba76f514f0424f3969af505e9fb364736f6c63430008020033a264697066735822122028248569bdc7b7c56addb38d147feb9155ea3c786d4bb180d1377471bdb1f78864736f6c63430008020033",
  "linkReferences": {},
  "deployedLinkReferences": {}
}