{
  "_format": "hh-sol-artifact-1",
  "contractName": "Register",
  "sourceName": "contracts/Register.sol",
  "abi": [
    {
      "anonymous": false,
      "inputs": [
        {
          "indexed": false,
          "internalType": "bytes16",
          "name": "uuid",
          "type": "bytes16"
        },
        {
          "indexed": false,
          "internalType": "uint8",
          "name": "position",
          "type": "uint8"
        },
        {
          "indexed": false,
          "internalType": "string",
          "name": "name",
          "type": "string"
        },
        {
          "indexed": false,
          "internalType": "string",
          "name": "description",
          "type": "string"
        }
      ],
      "name": "CategoryUpdatedEvent",
      "type": "event"
    },
    {
      "anonymous": false,
      "inputs": [
        {
          "indexed": false,
          "internalType": "bytes16",
          "name": "uuid",
          "type": "bytes16"
        },
        {
          "indexed": false,
          "internalType": "bytes16",
          "name": "categoryUuid",
          "type": "bytes16"
        },
        {
          "indexed": false,
          "internalType": "uint8",
          "name": "position",
          "type": "uint8"
        },
        {
          "indexed": false,
          "internalType": "string",
          "name": "name",
          "type": "string"
        },
        {
          "indexed": false,
          "internalType": "string",
          "name": "description",
          "type": "string"
        },
        {
          "indexed": false,
          "internalType": "enum IRegister.MilestoneStatus",
          "name": "status",
          "type": "uint8"
        }
      ],
      "name": "MilestoneUpdatedEvent",
      "type": "event"
    },
    {
      "anonymous": false,
      "inputs": [
        {
          "indexed": false,
          "internalType": "bytes16",
          "name": "uuid",
          "type": "bytes16"
        },
        {
          "indexed": false,
          "internalType": "address",
          "name": "predictionMarket",
          "type": "address"
        },
        {
          "indexed": false,
          "internalType": "uint8",
          "name": "position",
          "type": "uint8"
        },
        {
          "indexed": false,
          "internalType": "string",
          "name": "name",
          "type": "string"
        }
      ],
      "name": "OutcomeChangedEvent",
      "type": "event"
    },
    {
      "anonymous": false,
      "inputs": [
        {
          "indexed": true,
          "internalType": "address",
          "name": "previousOwner",
          "type": "address"
        },
        {
          "indexed": true,
          "internalType": "address",
          "name": "newOwner",
          "type": "address"
        }
      ],
      "name": "OwnershipTransferred",
      "type": "event"
    },
    {
      "anonymous": false,
      "inputs": [
        {
          "indexed": false,
          "internalType": "bytes16",
          "name": "milestoneUuid",
          "type": "bytes16"
        },
        {
          "indexed": false,
          "internalType": "uint8",
          "name": "position",
          "type": "uint8"
        },
        {
          "indexed": false,
          "internalType": "string",
          "name": "name",
          "type": "string"
        },
        {
          "indexed": false,
          "internalType": "string",
          "name": "description",
          "type": "string"
        },
        {
          "indexed": false,
          "internalType": "address",
          "name": "token",
          "type": "address"
        },
        {
          "indexed": false,
          "internalType": "uint256",
          "name": "dueDate",
          "type": "uint256"
        },
        {
          "indexed": false,
          "internalType": "address",
          "name": "contractAddress",
          "type": "address"
        }
      ],
      "name": "PredictionMarketRegisteredEvent",
      "type": "event"
    },
    {
      "inputs": [
        {
          "internalType": "address",
          "name": "prediction",
          "type": "address"
        },
        {
          "internalType": "bytes16",
          "name": "id",
          "type": "bytes16"
        },
        {
          "internalType": "uint8",
          "name": "position",
          "type": "uint8"
        },
        {
          "internalType": "string",
          "name": "name",
          "type": "string"
        }
      ],
      "name": "addOutcome",
      "outputs": [],
      "stateMutability": "nonpayable",
      "type": "function"
    },
    {
      "inputs": [
        {
          "internalType": "uint256",
          "name": "_currentTime",
          "type": "uint256"
        }
      ],
      "name": "getPredictionData",
      "outputs": [
        {
          "components": [
            {
              "internalType": "bytes16",
              "name": "id",
              "type": "bytes16"
            },
            {
              "internalType": "uint256",
              "name": "position",
              "type": "uint256"
            },
            {
              "internalType": "string",
              "name": "name",
              "type": "string"
            },
            {
              "internalType": "string",
              "name": "description",
              "type": "string"
            }
          ],
          "internalType": "struct IRegister.CategoryInfo[]",
          "name": "",
          "type": "tuple[]"
        },
        {
          "components": [
            {
              "internalType": "bytes16",
              "name": "id",
              "type": "bytes16"
            },
            {
              "internalType": "bytes16",
              "name": "category",
              "type": "bytes16"
            },
            {
              "internalType": "uint256",
              "name": "position",
              "type": "uint256"
            },
            {
              "internalType": "string",
              "name": "name",
              "type": "string"
            },
            {
              "internalType": "string",
              "name": "description",
              "type": "string"
            },
            {
              "internalType": "enum IRegister.MilestoneStatus",
              "name": "status",
              "type": "uint8"
            }
          ],
          "internalType": "struct IRegister.MilestoneInfo[]",
          "name": "",
          "type": "tuple[]"
        },
        {
          "components": [
            {
              "internalType": "address",
              "name": "id",
              "type": "address"
            },
            {
              "internalType": "bytes16",
              "name": "milestone",
              "type": "bytes16"
            },
            {
              "internalType": "uint256",
              "name": "position",
              "type": "uint256"
            },
            {
              "internalType": "string",
              "name": "name",
              "type": "string"
            },
            {
              "internalType": "string",
              "name": "description",
              "type": "string"
            },
            {
              "internalType": "uint8",
              "name": "state",
              "type": "uint8"
            },
            {
              "internalType": "address",
              "name": "token",
              "type": "address"
            },
            {
              "internalType": "uint256",
              "name": "dueDate",
              "type": "uint256"
            },
            {
              "internalType": "uint256",
              "name": "predictionTimeEnd",
              "type": "uint256"
            },
            {
              "internalType": "uint256",
              "name": "predictorsNumber",
              "type": "uint256"
            }
          ],
          "internalType": "struct IRegister.PredictionInfo[]",
          "name": "",
          "type": "tuple[]"
        },
        {
          "components": [
            {
              "internalType": "bytes16",
              "name": "id",
              "type": "bytes16"
            },
            {
              "internalType": "address",
              "name": "prediction",
              "type": "address"
            },
            {
              "internalType": "uint256",
              "name": "position",
              "type": "uint256"
            },
            {
              "internalType": "string",
              "name": "name",
              "type": "string"
            },
            {
              "internalType": "uint256",
              "name": "stakedAmount",
              "type": "uint256"
            },
            {
              "internalType": "uint8",
              "name": "winning",
              "type": "uint8"
            }
          ],
          "internalType": "struct IRegister.OutcomeInfo[]",
          "name": "",
          "type": "tuple[]"
        }
      ],
      "stateMutability": "view",
      "type": "function"
    },
    {
      "inputs": [],
      "name": "initialize",
      "outputs": [],
      "stateMutability": "nonpayable",
      "type": "function"
    },
    {
      "inputs": [],
      "name": "owner",
      "outputs": [
        {
          "internalType": "address",
          "name": "",
          "type": "address"
        }
      ],
      "stateMutability": "view",
      "type": "function"
    },
    {
      "inputs": [
        {
          "internalType": "address",
          "name": "addr",
          "type": "address"
        },
        {
          "internalType": "bytes16",
          "name": "milestoneUuid",
          "type": "bytes16"
        },
        {
          "internalType": "uint8",
          "name": "position",
          "type": "uint8"
        },
        {
          "internalType": "string",
          "name": "name",
          "type": "string"
        },
        {
          "internalType": "string",
          "name": "description",
          "type": "string"
        },
        {
          "internalType": "address",
          "name": "token",
          "type": "address"
        },
        {
          "internalType": "uint256",
          "name": "dueDate",
          "type": "uint256"
        },
        {
          "internalType": "uint256",
          "name": "predictionTimeEnd",
          "type": "uint256"
        },
        {
          "components": [
            {
              "internalType": "bytes16",
              "name": "uuid",
              "type": "bytes16"
            },
            {
              "internalType": "uint8",
              "name": "position",
              "type": "uint8"
            },
            {
              "internalType": "string",
              "name": "name",
              "type": "string"
            }
          ],
          "internalType": "struct Market.Outcome[]",
          "name": "outcomes",
          "type": "tuple[]"
        }
      ],
      "name": "registerMarket",
      "outputs": [
        {
          "internalType": "address",
          "name": "",
          "type": "address"
        }
      ],
      "stateMutability": "nonpayable",
      "type": "function"
    },
    {
      "inputs": [],
      "name": "renounceOwnership",
      "outputs": [],
      "stateMutability": "nonpayable",
      "type": "function"
    },
    {
      "inputs": [
        {
          "internalType": "bytes16",
          "name": "",
          "type": "bytes16"
        }
      ],
      "name": "slot",
      "outputs": [
        {
          "internalType": "uint256",
          "name": "",
          "type": "uint256"
        }
      ],
      "stateMutability": "view",
      "type": "function"
    },
    {
      "inputs": [
        {
          "internalType": "address",
          "name": "newOwner",
          "type": "address"
        }
      ],
      "name": "transferOwnership",
      "outputs": [],
      "stateMutability": "nonpayable",
      "type": "function"
    },
    {
      "inputs": [
        {
          "internalType": "bytes16",
          "name": "uuid",
          "type": "bytes16"
        },
        {
          "internalType": "uint8",
          "name": "position",
          "type": "uint8"
        },
        {
          "internalType": "string",
          "name": "name",
          "type": "string"
        },
        {
          "internalType": "string",
          "name": "description",
          "type": "string"
        }
      ],
      "name": "updateCategory",
      "outputs": [],
      "stateMutability": "nonpayable",
      "type": "function"
    },
    {
      "inputs": [
        {
          "internalType": "bytes16",
          "name": "uuid",
          "type": "bytes16"
        },
        {
          "internalType": "bytes16",
          "name": "categoryUuid",
          "type": "bytes16"
        },
        {
          "internalType": "uint8",
          "name": "position",
          "type": "uint8"
        },
        {
          "internalType": "string",
          "name": "name",
          "type": "string"
        },
        {
          "internalType": "string",
          "name": "description",
          "type": "string"
        },
        {
          "internalType": "enum IRegister.MilestoneStatus",
          "name": "status",
          "type": "uint8"
        }
      ],
      "name": "updateMilestone",
      "outputs": [],
      "stateMutability": "nonpayable",
      "type": "function"
    }
  ],
  "bytecode": "0x608060405234801561001057600080fd5b50612da3806100206000396000f3fe608060405234801561001057600080fd5b50600436106100be5760003560e01c80638129fc1c116100765780639f5a34081161005b5780639f5a34081461017e578063edd55edf14610191578063f2fde38b146101a4576100be565b80638129fc1c146101655780638da5cb5b1461016d576100be565b8063715018a6116100a7578063715018a61461010457806374b36bd31461010c5780637f26b23b1461013a576100be565b80631ca76def146100c3578063562b3e09146100d8575b600080fd5b6100d66100d1366004612560565b6101b7565b005b6100eb6100e63660046126a9565b6104e2565b6040516100fb94939291906129cd565b60405180910390f35b6100d6611370565b61012c61011a366004612528565b60696020526000908152604090205481565b6040519081526020016100fb565b61014d610148366004612427565b611421565b6040516001600160a01b0390911681526020016100fb565b6100d66118ab565b6033546001600160a01b031661014d565b6100d661018c366004612619565b61197e565b6100d661019f3660046123af565b611bc4565b6100d66101b2366004612370565b611e3a565b6033546001600160a01b031633146102165760405162461bcd60e51b815260206004820181905260248201527f4f776e61626c653a2063616c6c6572206973206e6f7420746865206f776e657260448201526064015b60405180910390fd5b61024b6040805160c081018252600080825260208201819052918101829052606080820181905260808201529060a082015290565b6001600160801b0319808a168252881660208083019190915260ff88166040808401919091528051601f88018390048302810183019091528681529087908790819084018382808284376000920191909152505050506060820152604080516020601f8601819004810282018101909252848152908590859081908401838280828437600092019190915250505050608082015260a0810182600281111561030357634e487b7160e01b600052602160045260246000fd5b9081600281111561032457634e487b7160e01b600052602160045260246000fd5b90525060668054600181018255600091909152815160059091027f46501879b8ca8525e8c2fd519e2fbfcfa2ebea26501294aa02cbfcfb12e9435481018054602080860151608090811c7001000000000000000000000000000000000295901c6001600160801b0319909216919091176fffffffffffffffffffffffffffffffff1693909317815560408401517f46501879b8ca8525e8c2fd519e2fbfcfa2ebea26501294aa02cbfcfb12e943558301556060840151805185949293610410937f46501879b8ca8525e8c2fd519e2fbfcfa2ebea26501294aa02cbfcfb12e94356909101920190612222565b506080820151805161042c916003840191602090910190612222565b5060a082015160048201805460ff1916600183600281111561045e57634e487b7160e01b600052602160045260246000fd5b0217905550506066546104749150600190612cbf565b6001600160801b03198a166000908152606960205260409081902091909155517f97cb6f21bba4326123eb05c550830ca034704506c45171b654d35448a8e27ce7906104cf908b908b908b908b908b908b908b908b90612b09565b60405180910390a1505050505050505050565b606080606080600060678054905067ffffffffffffffff81111561051657634e487b7160e01b600052604160045260246000fd5b60405190808252806020026020018201604052801561059457816020015b6040805161014081018252600080825260208083018290529282018190526060808301819052608083015260a0820181905260c0820181905260e08201819052610100820181905261012082015282526000199092019101816105345790505b5060685490915060009067ffffffffffffffff8111156105c457634e487b7160e01b600052604160045260246000fd5b60405190808252806020026020018201604052801561062357816020015b6040805160c081018252600080825260208083018290529282018190526060808301526080820181905260a082015282526000199092019101816105e25790505b50905060005b606754811015610b13576067818154811061065457634e487b7160e01b600052603260045260246000fd5b6000918252602091829020604080516101408101825260099390930290910180546001600160a01b03168352600181015460801b6001600160801b031916938301939093526002830154908201526003820180549192916060840191906106ba90612cd6565b80601f01602080910402602001604051908101604052809291908181526020018280546106e690612cd6565b80156107335780601f1061070857610100808354040283529160200191610733565b820191906000526020600020905b81548152906001019060200180831161071657829003601f168201915b5050505050815260200160048201805461074c90612cd6565b80601f016020809104026020016040519081016040528092919081815260200182805461077890612cd6565b80156107c55780601f1061079a576101008083540402835291602001916107c5565b820191906000526020600020905b8154815290600101906020018083116107a857829003601f168201915b5050509183525050600582015460ff8116602083015261010090046001600160a01b03166040820152600682015460608201526007820154608082015260089091015460a090910152835184908390811061083057634e487b7160e01b600052603260045260246000fd5b6020908102919091010152825160009084908390811061086057634e487b7160e01b600052603260045260246000fd5b6020026020010151600001516001600160a01b0316639b34ae036040518163ffffffff1660e01b815260040160206040518083038186803b1580156108a457600080fd5b505afa1580156108b8573d6000803e3d6000fd5b505050506040513d601f19601f820116820180604052508101906108dc9190612544565b6001600160801b031916141561092d578783828151811061090d57634e487b7160e01b600052603260045260246000fd5b602002602001015160e0015111610925576001610928565b60005b610930565b60025b83828151811061095057634e487b7160e01b600052603260045260246000fd5b602002602001015160a0019060ff16908160ff168152505082818151811061098857634e487b7160e01b600052603260045260246000fd5b6020026020010151600001516001600160a01b031663be1c4a2d6040518163ffffffff1660e01b815260040160206040518083038186803b1580156109cc57600080fd5b505afa1580156109e0573d6000803e3d6000fd5b505050506040513d601f19601f82011682018060405250810190610a0491906126c1565b838281518110610a2457634e487b7160e01b600052603260045260246000fd5b6020026020010151610120018181525050828181518110610a5557634e487b7160e01b600052603260045260246000fd5b6020026020010151600001516001600160a01b031663358fac1c6040518163ffffffff1660e01b815260040160206040518083038186803b158015610a9957600080fd5b505afa158015610aad573d6000803e3d6000fd5b505050506040513d601f19601f82011682018060405250810190610ad191906126c1565b838281518110610af157634e487b7160e01b600052603260045260246000fd5b6020908102919091010151610100015280610b0b81612d11565b915050610629565b5060005b606854811015610fa75760688181548110610b4257634e487b7160e01b600052603260045260246000fd5b60009182526020918290206040805160c081018252600693909302909101805460801b6001600160801b031916835260018101546001600160a01b031693830193909352600283015490820152600382018054919291606084019190610ba790612cd6565b80601f0160208091040260200160405190810160405280929190818152602001828054610bd390612cd6565b8015610c205780601f10610bf557610100808354040283529160200191610c20565b820191906000526020600020905b815481529060010190602001808311610c0357829003601f168201915b50505091835250506004820154602082015260059091015460ff166040909101528251839083908110610c6357634e487b7160e01b600052603260045260246000fd5b602002602001018190525060688181548110610c8f57634e487b7160e01b600052603260045260246000fd5b906000526020600020906006020160010160009054906101000a90046001600160a01b03166001600160a01b03166372bcc38360688381548110610ce357634e487b7160e01b600052603260045260246000fd5b60009182526020909120600690910201546040517fffffffff0000000000000000000000000000000000000000000000000000000060e084901b168152610d409160801b906004016001600160801b031991909116815260200190565b60206040518083038186803b158015610d5857600080fd5b505afa158015610d6c573d6000803e3d6000fd5b505050506040513d601f19601f82011682018060405250810190610d909190612393565b6001600160a01b031663567e98f96040518163ffffffff1660e01b815260040160206040518083038186803b158015610dc857600080fd5b505afa158015610ddc573d6000803e3d6000fd5b505050506040513d601f19601f82011682018060405250810190610e0091906126c1565b828281518110610e2057634e487b7160e01b600052603260045260246000fd5b6020026020010151608001818152505060688181548110610e5157634e487b7160e01b600052603260045260246000fd5b906000526020600020906006020160000160009054906101000a900460801b6fffffffffffffffffffffffffffffffff191660688281548110610ea457634e487b7160e01b600052603260045260246000fd5b600091825260209182902060016006909202010154604080517f9b34ae0300000000000000000000000000000000000000000000000000000000815290516001600160a01b0390921692639b34ae0392600480840193829003018186803b158015610f0e57600080fd5b505afa158015610f22573d6000803e3d6000fd5b505050506040513d601f19601f82011682018060405250810190610f469190612544565b6001600160801b03191614610f5c576000610f5f565b60015b828281518110610f7f57634e487b7160e01b600052603260045260246000fd5b602090810291909101015160ff90911660a09091015280610f9f81612d11565b915050610b17565b5060656066838383805480602002602001604051908101604052809291908181526020016000905b82821015611147576000848152602090819020604080516080808201835260048702909301805490931b6001600160801b03191681526001830154938101939093526002820180549184019161102490612cd6565b80601f016020809104026020016040519081016040528092919081815260200182805461105090612cd6565b801561109d5780601f106110725761010080835404028352916020019161109d565b820191906000526020600020905b81548152906001019060200180831161108057829003601f168201915b505050505081526020016003820180546110b690612cd6565b80601f01602080910402602001604051908101604052809291908181526020018280546110e290612cd6565b801561112f5780601f106111045761010080835404028352916020019161112f565b820191906000526020600020905b81548152906001019060200180831161111257829003601f168201915b50505050508152505081526020019060010190610fcf565b50505050935082805480602002602001604051908101604052809291908181526020016000905b828210156113595760008481526020908190206040805160c0810182526005860290920180546001600160801b0319608082811b8216865270010000000000000000000000000000000090920490911b16938301939093526001830154908201526002820180549192916060840191906111e790612cd6565b80601f016020809104026020016040519081016040528092919081815260200182805461121390612cd6565b80156112605780601f1061123557610100808354040283529160200191611260565b820191906000526020600020905b81548152906001019060200180831161124357829003601f168201915b5050505050815260200160038201805461127990612cd6565b80601f01602080910402602001604051908101604052809291908181526020018280546112a590612cd6565b80156112f25780601f106112c7576101008083540402835291602001916112f2565b820191906000526020600020905b8154815290600101906020018083116112d557829003601f168201915b5050509183525050600482015460209091019060ff16600281111561132757634e487b7160e01b600052602160045260246000fd5b600281111561134657634e487b7160e01b600052602160045260246000fd5b815250508152602001906001019061116e565b505050509250955095509550955050509193509193565b6033546001600160a01b031633146113ca5760405162461bcd60e51b815260206004820181905260248201527f4f776e61626c653a2063616c6c6572206973206e6f7420746865206f776e6572604482015260640161020d565b6033546040516000916001600160a01b0316907f8be0079c531659141344cd1fd0a4f28419497f9722a3daafe3b4186f6b6457e0908390a36033805473ffffffffffffffffffffffffffffffffffffffff19169055565b6033546000906001600160a01b0316331461147e5760405162461bcd60e51b815260206004820181905260248201527f4f776e61626c653a2063616c6c6572206973206e6f7420746865206f776e6572604482015260640161020d565b4285116114f35760405162461bcd60e51b815260206004820152602860248201527f4d4152533a20496e76616c69642070726564696374696f6e206d61726b65742060448201527f6475652064617465000000000000000000000000000000000000000000000000606482015260840161020d565b604080516101408101825260608082018190526080820152600060a0820181905260c0820181905260e0820181905261010082018190526101208201526001600160a01b038f1681526001600160801b03198e1660208083019190915260ff8e16828401528251601f8d018290048202810182019093528b83529091908c908c90819084018382808284376000920191909152505050506060820152604080516020601f8b01819004810282018101909252898152908a908a908190840183828082843760009201829052506080868101959095526001600160a01b038c811660c088015260e087018c905260678054600181018255925286517f9787eeb91fe3101235e4a76063c7023ecb40f923f97916639c598592fa30d6ae6009909302928301805473ffffffffffffffffffffffffffffffffffffffff1916919092161781556020808801517f9787eeb91fe3101235e4a76063c7023ecb40f923f97916639c598592fa30d6af840180546001600160801b0319169190981c1790965560408701517f9787eeb91fe3101235e4a76063c7023ecb40f923f97916639c598592fa30d6b08301556060870151805188979296506116da95507f9787eeb91fe3101235e4a76063c7023ecb40f923f97916639c598592fa30d6b190930193500190612222565b50608082015180516116f6916004840191602090910190612222565b5060a08201518160050160006101000a81548160ff021916908360ff16021790555060c08201518160050160016101000a8154816001600160a01b0302191690836001600160a01b0316021790555060e082015181600601556101008201518160070155610120820151816008015550507f482b2eb46e5ccdfe01463353ff1bcebf7fab16be16dff18cc71091c7bb4ac28c8d8d8d8d8d8d8d8d89600001516040516117aa99989796959493929190612bb0565b60405180910390a160005b83811015611898578151611886908686848181106117e357634e487b7160e01b600052603260045260246000fd5b90506020028101906117f59190612c82565b611803906020810190612528565b87878581811061182357634e487b7160e01b600052603260045260246000fd5b90506020028101906118359190612c82565b6118469060408101906020016126d9565b88888681811061186657634e487b7160e01b600052603260045260246000fd5b90506020028101906118789190612c82565b61019f906040810190612c1f565b8061189081612d11565b9150506117b5565b50519d9c50505050505050505050505050565b600054610100900460ff16806118c4575060005460ff16155b6119365760405162461bcd60e51b815260206004820152602e60248201527f496e697469616c697a61626c653a20636f6e747261637420697320616c72656160448201527f647920696e697469616c697a6564000000000000000000000000000000000000606482015260840161020d565b600054610100900460ff16158015611961576000805460ff1961ff0019909116610100171660011790555b611969611f79565b801561197b576000805461ff00191690555b50565b6033546001600160a01b031633146119d85760405162461bcd60e51b815260206004820181905260248201527f4f776e61626c653a2063616c6c6572206973206e6f7420746865206f776e6572604482015260640161020d565b604080516080810182526060818301819052808201526001600160801b03198816815260ff87166020808301919091528251601f8701829004820281018201909352858352909190869086908190840183828082843760009201919091525050505060408083019190915280516020601f85018190048102820181019092528381529084908490819084018382808284376000920182905250606086019490945250506065805460018101825592525081517f8ff97419363ffd7000167f130ef7168fbea05faf9251824ca5043f113cc6a7c7600490920291820180546001600160801b03191660809290921c9190911781556020808401517f8ff97419363ffd7000167f130ef7168fbea05faf9251824ca5043f113cc6a7c8840155604084015180518594611b2e937f8ff97419363ffd7000167f130ef7168fbea05faf9251824ca5043f113cc6a7c9909101920190612222565b5060608201518051611b4a916003840191602090910190612222565b5050606554611b5c9150600190612cbf565b6001600160801b031988166000908152606960205260409081902091909155517f46221b6add3bce22aaeafeb439ab5a44b0d1f8f12d18d49533b0dcf95734e4a390611bb390899089908990899089908990612b70565b60405180910390a150505050505050565b6033546001600160a01b03163314611c1e5760405162461bcd60e51b815260206004820181905260248201527f4f776e61626c653a2063616c6c6572206973206e6f7420746865206f776e6572604482015260640161020d565b6040805160c08101825260608082015260006080820181905260a08201526001600160801b0319861681526001600160a01b03871660208083019190915260ff8616828401528251601f8501829004820281018201909352838352909190849084908190840183828082843760009201829052506060860194855260688054600181018255915285517fa2153420d844928b4421650203c77babc8b33d7f2e7b450e2966db0c22097753600690920291820180546001600160801b03191660809290921c9190911781556020808801517fa2153420d844928b4421650203c77babc8b33d7f2e7b450e2966db0c220977548401805473ffffffffffffffffffffffffffffffffffffffff19166001600160a01b0390921691909117905560408801517fa2153420d844928b4421650203c77babc8b33d7f2e7b450e2966db0c22097755840155955180518897929650611d9f95507fa2153420d844928b4421650203c77babc8b33d7f2e7b450e2966db0c2209775690930193500190612222565b506080820151600482015560a0909101516005909101805460ff191660ff909216919091179055606854611dd590600190612cbf565b6001600160801b031986166000908152606960205260409081902091909155517fcd9d3cae03c2df21bc101125f0a030e027ebf1fee4c8e71291e0be1638220a1e90611e2a9087908990889088908890612acd565b60405180910390a1505050505050565b6033546001600160a01b03163314611e945760405162461bcd60e51b815260206004820181905260248201527f4f776e61626c653a2063616c6c6572206973206e6f7420746865206f776e6572604482015260640161020d565b6001600160a01b038116611f105760405162461bcd60e51b815260206004820152602660248201527f4f776e61626c653a206e6577206f776e657220697320746865207a65726f206160448201527f6464726573730000000000000000000000000000000000000000000000000000606482015260840161020d565b6033546040516001600160a01b038084169216907f8be0079c531659141344cd1fd0a4f28419497f9722a3daafe3b4186f6b6457e090600090a36033805473ffffffffffffffffffffffffffffffffffffffff19166001600160a01b0392909216919091179055565b600054610100900460ff1680611f92575060005460ff16155b6120045760405162461bcd60e51b815260206004820152602e60248201527f496e697469616c697a61626c653a20636f6e747261637420697320616c72656160448201527f647920696e697469616c697a6564000000000000000000000000000000000000606482015260840161020d565b600054610100900460ff1615801561202f576000805460ff1961ff0019909116610100171660011790555b61203761203f565b611969612108565b600054610100900460ff1680612058575060005460ff16155b6120ca5760405162461bcd60e51b815260206004820152602e60248201527f496e697469616c697a61626c653a20636f6e747261637420697320616c72656160448201527f647920696e697469616c697a6564000000000000000000000000000000000000606482015260840161020d565b600054610100900460ff16158015611969576000805460ff1961ff001990911661010017166001179055801561197b576000805461ff001916905550565b600054610100900460ff1680612121575060005460ff16155b6121935760405162461bcd60e51b815260206004820152602e60248201527f496e697469616c697a61626c653a20636f6e747261637420697320616c72656160448201527f647920696e697469616c697a6564000000000000000000000000000000000000606482015260840161020d565b600054610100900460ff161580156121be576000805460ff1961ff0019909116610100171660011790555b6033805473ffffffffffffffffffffffffffffffffffffffff19163390811790915560405181906000907f8be0079c531659141344cd1fd0a4f28419497f9722a3daafe3b4186f6b6457e0908290a350801561197b576000805461ff001916905550565b82805461222e90612cd6565b90600052602060002090601f0160209004810192826122505760008555612296565b82601f1061226957805160ff1916838001178555612296565b82800160010185558215612296579182015b8281111561229657825182559160200191906001019061227b565b506122a29291506122a6565b5090565b5b808211156122a257600081556001016122a7565b80356122c681612d42565b919050565b60008083601f8401126122dc578182fd5b50813567ffffffffffffffff8111156122f3578182fd5b602083019150836020808302850101111561230d57600080fd5b9250929050565b80356122c681612d57565b60008083601f840112612330578182fd5b50813567ffffffffffffffff811115612347578182fd5b60208301915083602082850101111561230d57600080fd5b803560ff811681146122c657600080fd5b600060208284031215612381578081fd5b813561238c81612d42565b9392505050565b6000602082840312156123a4578081fd5b815161238c81612d42565b6000806000806000608086880312156123c6578081fd5b85356123d181612d42565b945060208601356123e181612d57565b93506123ef6040870161235f565b9250606086013567ffffffffffffffff81111561240a578182fd5b6124168882890161231f565b969995985093965092949392505050565b6000806000806000806000806000806000806101208d8f031215612449578687fd5b6124528d6122bb565b9b5061246060208e01612314565b9a5061246e60408e0161235f565b995067ffffffffffffffff60608e01351115612488578687fd5b6124988e60608f01358f0161231f565b909950975067ffffffffffffffff60808e013511156124b5578687fd5b6124c58e60808f01358f0161231f565b90975095506124d660a08e016122bb565b945060c08d0135935060e08d0135925067ffffffffffffffff6101008e013511156124ff578081fd5b6125108e6101008f01358f016122cb565b81935080925050509295989b509295989b509295989b565b600060208284031215612539578081fd5b813561238c81612d57565b600060208284031215612555578081fd5b815161238c81612d57565b60008060008060008060008060c0898b03121561257b578384fd5b883561258681612d57565b9750602089013561259681612d57565b96506125a460408a0161235f565b9550606089013567ffffffffffffffff808211156125c0578586fd5b6125cc8c838d0161231f565b909750955060808b01359150808211156125e4578485fd5b506125f18b828c0161231f565b90945092505060a089013560038110612608578182fd5b809150509295985092959890939650565b60008060008060008060808789031215612631578182fd5b863561263c81612d57565b955061264a6020880161235f565b9450604087013567ffffffffffffffff80821115612666578384fd5b6126728a838b0161231f565b9096509450606089013591508082111561268a578384fd5b5061269789828a0161231f565b979a9699509497509295939492505050565b6000602082840312156126ba578081fd5b5035919050565b6000602082840312156126d2578081fd5b5051919050565b6000602082840312156126ea578081fd5b61238c8261235f565b6000815180845260208085018081965082840281019150828601855b858110156127a3578284038952815160c06001600160801b031980835116875280888401511688880152506040808301518188015250606080830151828289015261275c83890182612982565b92505050608080830151878303828901526127778382612982565b9250505060a080830151925061278f81880184612936565b50998601999450509084019060010161270f565b5091979650505050505050565b6000815180845260208085018081965082840281019150828601855b858110156127a3578284038952815160c06001600160801b031982511686526001600160a01b038783015116878701526040808301518188015250606080830151828289015261281e83890182612982565b608085810151908a015260a09485015160ff16949098019390935250505097840197908401906001016127cc565b6000815180845260208085018081965082840281019150828601855b858110156127a3578284038952815180516001600160a01b03168552610140818701516001600160801b031981168789015250604080830151818801525060608083015182828901526128bd83890182612982565b92505050608080830151878303828901526128d88382612982565b9250505060a0808301516128f08289018260ff169052565b505060c0828101516001600160a01b03169087015260e0808301519087015261010080830151908701526101209182015191909501529784019790840190600101612868565b6003811061295457634e487b7160e01b600052602160045260246000fd5b9052565b60008284528282602086013780602084860101526020601f19601f85011685010190509392505050565b60008151808452815b818110156129a75760208185018101518683018201520161298b565b818111156129b85782602083870101525b50601f01601f19169290920160200192915050565b6000608080830181845280885180835260a0860191506020925060a0838202870101838b01865b83811015612a83577fffffffffffffffffffffffffffffffffffffffffffffffffffffffffffffff6089840301855281516001600160801b0319815116845286810151878501526040808201518982870152612a528a870182612982565b91505060608083015192508582038187015250612a6f8183612982565b9688019694505050908501906001016129f4565b505086810384880152612a96818b6126f3565b9450505050508281036040840152612aae818661284c565b90508281036060840152612ac281856127b0565b979650505050505050565b60006001600160801b0319871682526001600160a01b038616602083015260ff8516604083015260806060830152612ac2608083018486612958565b60006001600160801b0319808b168352808a1660208401525060ff8816604083015260c06060830152612b4060c083018789612958565b8281036080840152612b53818688612958565b915050612b6360a0830184612936565b9998505050505050505050565b60006001600160801b03198816825260ff8716602083015260806040830152612b9d608083018688612958565b8281036060840152612b63818587612958565b60006001600160801b03198b16825260ff8a16602083015260e06040830152612bdd60e08301898b612958565b8281036060840152612bf081888a612958565b6001600160a01b03968716608085015260a08401959095525050921660c0909201919091529695505050505050565b60008083357fffffffffffffffffffffffffffffffffffffffffffffffffffffffffffffffe1843603018112612c53578283fd5b83018035915067ffffffffffffffff821115612c6d578283fd5b60200191503681900382131561230d57600080fd5b600082357fffffffffffffffffffffffffffffffffffffffffffffffffffffffffffffffa1833603018112612cb5578182fd5b9190910192915050565b600082821015612cd157612cd1612d2c565b500390565b600281046001821680612cea57607f821691505b60208210811415612d0b57634e487b7160e01b600052602260045260246000fd5b50919050565b6000600019821415612d2557612d25612d2c565b5060010190565b634e487b7160e01b600052601160045260246000fd5b6001600160a01b038116811461197b57600080fd5b6001600160801b03198116811461197b57600080fdfea26469706673582212202826e2fbf6194442750bfb53dffb6cdc76f6555cd78911b37a5227159f35c6d064736f6c63430008020033",
  "linkReferences": {},
  "deployedLinkReferences": {}
}