{
  "_format": "hh-sol-artifact-1",
  "contractName": "MarsPredictionMarket",
  "sourceName": "contracts/MarsPredictionMarket.sol",
  "abi": [
    {
      "inputs": [
        {
          "internalType": "address",
          "name": "_token",
          "type": "address"
        },
        {
          "internalType": "uint256",
          "name": "_predictionTimeEnd",
          "type": "uint256"
        },
        {
          "internalType": "address",
          "name": "_settlement",
          "type": "address"
        }
      ],
      "stateMutability": "nonpayable",
      "type": "constructor"
    },
    {
      "anonymous": false,
      "inputs": [
        {
          "indexed": false,
          "internalType": "address",
          "name": "oldOwner",
          "type": "address"
        },
        {
          "indexed": false,
          "internalType": "address",
          "name": "newOwner",
          "type": "address"
        }
      ],
      "name": "OwnerChanged",
      "type": "event"
    },
    {
      "anonymous": false,
      "inputs": [
        {
          "indexed": false,
          "internalType": "address",
          "name": "newOwner",
          "type": "address"
        }
      ],
      "name": "OwnerNominated",
      "type": "event"
    },
    {
      "anonymous": false,
      "inputs": [
        {
          "indexed": true,
          "internalType": "address",
          "name": "_account",
          "type": "address"
        },
        {
          "indexed": false,
          "internalType": "bytes16",
          "name": "_outcome",
          "type": "bytes16"
        },
        {
          "indexed": false,
          "internalType": "uint256",
          "name": "_amount",
          "type": "uint256"
        }
      ],
      "name": "PredictionEvent",
      "type": "event"
    },
    {
      "inputs": [],
      "name": "acceptOwnership",
      "outputs": [],
      "stateMutability": "nonpayable",
      "type": "function"
    },
    {
      "inputs": [
        {
          "internalType": "bytes16",
          "name": "uuid",
          "type": "bytes16"
        },
        {
          "internalType": "uint8",
          "name": "position",
          "type": "uint8"
        },
        {
          "internalType": "string",
          "name": "name",
          "type": "string"
        }
      ],
      "name": "addOutcome",
      "outputs": [],
      "stateMutability": "nonpayable",
      "type": "function"
    },
    {
      "inputs": [],
      "name": "fee",
      "outputs": [
        {
          "internalType": "uint256",
          "name": "",
          "type": "uint256"
        }
      ],
      "stateMutability": "view",
      "type": "function"
    },
    {
      "inputs": [],
      "name": "feeDivisor",
      "outputs": [
        {
          "internalType": "uint256",
          "name": "",
          "type": "uint256"
        }
      ],
      "stateMutability": "view",
      "type": "function"
    },
    {
      "inputs": [],
      "name": "getBalancingTimeStart",
      "outputs": [
        {
          "internalType": "uint256",
          "name": "",
          "type": "uint256"
        }
      ],
      "stateMutability": "view",
      "type": "function"
    },
    {
      "inputs": [],
      "name": "getNumberOfOutcomes",
      "outputs": [
        {
          "internalType": "uint256",
          "name": "",
          "type": "uint256"
        }
      ],
      "stateMutability": "view",
      "type": "function"
    },
    {
      "inputs": [],
      "name": "getPredictionTimeEnd",
      "outputs": [
        {
          "internalType": "uint256",
          "name": "",
          "type": "uint256"
        }
      ],
      "stateMutability": "view",
      "type": "function"
    },
    {
      "inputs": [],
      "name": "getReward",
      "outputs": [],
      "stateMutability": "nonpayable",
      "type": "function"
    },
    {
      "inputs": [],
      "name": "getTokens",
      "outputs": [
        {
          "internalType": "address[]",
          "name": "",
          "type": "address[]"
        }
      ],
      "stateMutability": "view",
      "type": "function"
    },
    {
      "inputs": [],
      "name": "getUserPredictionState",
      "outputs": [
        {
          "components": [
            {
              "internalType": "bytes16",
              "name": "outcomeUuid",
              "type": "bytes16"
            },
            {
              "internalType": "bool",
              "name": "suspended",
              "type": "bool"
            },
            {
              "internalType": "uint256",
              "name": "stakeAmount",
              "type": "uint256"
            },
            {
              "internalType": "uint256",
              "name": "currentReward",
              "type": "uint256"
            },
            {
              "internalType": "bool",
              "name": "rewardReceived",
              "type": "bool"
            }
          ],
          "internalType": "struct IPredictionMarket.UserOutcomeInfo[]",
          "name": "",
          "type": "tuple[]"
        }
      ],
      "stateMutability": "view",
      "type": "function"
    },
    {
      "inputs": [
        {
          "internalType": "address",
          "name": "_owner",
          "type": "address"
        }
      ],
      "name": "nominateNewOwner",
      "outputs": [],
      "stateMutability": "nonpayable",
      "type": "function"
    },
    {
      "inputs": [],
      "name": "nominatedOwner",
      "outputs": [
        {
          "internalType": "address",
          "name": "",
          "type": "address"
        }
      ],
      "stateMutability": "view",
      "type": "function"
    },
    {
      "inputs": [
        {
          "internalType": "uint256",
          "name": "",
          "type": "uint256"
        }
      ],
      "name": "outcomeTokens",
      "outputs": [
        {
          "internalType": "address",
          "name": "",
          "type": "address"
        }
      ],
      "stateMutability": "view",
      "type": "function"
    },
    {
      "inputs": [
        {
          "internalType": "uint256",
          "name": "",
          "type": "uint256"
        }
      ],
      "name": "outcomes",
      "outputs": [
        {
          "internalType": "bytes16",
          "name": "",
          "type": "bytes16"
        }
      ],
      "stateMutability": "view",
      "type": "function"
    },
    {
      "inputs": [],
      "name": "owner",
      "outputs": [
        {
          "internalType": "address",
          "name": "",
          "type": "address"
        }
      ],
      "stateMutability": "view",
      "type": "function"
    },
    {
      "inputs": [
        {
          "internalType": "bytes16",
          "name": "_outcome",
          "type": "bytes16"
        },
        {
          "internalType": "uint256",
          "name": "_amount",
          "type": "uint256"
        }
      ],
      "name": "predict",
      "outputs": [],
      "stateMutability": "nonpayable",
      "type": "function"
    },
    {
      "inputs": [],
      "name": "predictionMarketBalancingStart",
      "outputs": [
        {
          "internalType": "uint256",
          "name": "",
          "type": "uint256"
        }
      ],
      "stateMutability": "view",
      "type": "function"
    },
    {
      "inputs": [],
      "name": "predictionTimeEnd",
      "outputs": [
        {
          "internalType": "uint256",
          "name": "",
          "type": "uint256"
        }
      ],
      "stateMutability": "view",
      "type": "function"
    },
    {
      "inputs": [
        {
          "internalType": "address",
          "name": "_newSettlement",
          "type": "address"
        }
      ],
      "name": "setSettlement",
      "outputs": [],
      "stateMutability": "nonpayable",
      "type": "function"
    },
    {
      "inputs": [],
      "name": "token",
      "outputs": [
        {
          "internalType": "address",
          "name": "",
          "type": "address"
        }
      ],
      "stateMutability": "view",
      "type": "function"
    },
    {
      "inputs": [
        {
          "internalType": "bytes16",
          "name": "",
          "type": "bytes16"
        }
      ],
      "name": "tokenOutcomeAddress",
      "outputs": [
        {
          "internalType": "address",
          "name": "",
          "type": "address"
        }
      ],
      "stateMutability": "view",
      "type": "function"
    },
    {
      "inputs": [],
      "name": "winningOutcome",
      "outputs": [
        {
          "internalType": "bytes16",
          "name": "",
          "type": "bytes16"
        }
      ],
      "stateMutability": "view",
      "type": "function"
    }
  ],
  "bytecode": "0x60c06040526126f26006556127106007553480156200001d57600080fd5b5060405162002e0838038062002e0883398101604081905262000040916200015f565b33806200009f5760405162461bcd60e51b815260206004820152602360248201527f4d4152533a204f776e65722061646472657373206d75737420626520646566696044820152621b995960ea1b606482015260840160405180910390fd5b600080546001600160a01b0319166001600160a01b03831690811782556040805192835260208301919091527fb532073b38c83145e3e5135377a08bf9aab55bc0fd7c1179cd4fb995d2a5159c910160405180910390a150608091909152600b80546001600160a01b039092166001600160a01b03199283161790556001600160601b031960609290921b9190911660a052600c8054909116331790556200019f565b80516001600160a01b03811681146200015a57600080fd5b919050565b60008060006060848603121562000174578283fd5b6200017f8462000142565b925060208401519150620001966040850162000142565b90509250925092565b60805160a05160601c612c24620001e46000396000818161039001528181610899015261137f0152600081816101df015281816102dc01526112d50152612c246000f3fe60806040523480156200001157600080fd5b5060043610620001a85760003560e01c806392191ce111620000ed578063d879b82b1162000099578063f9082c01116200006f578063f9082c011462000373578063fc0c546a146200038a578063ffebbea714620003b257620001a8565b8063d879b82b1462000349578063ddca3f431462000352578063eed2a147146200035c57620001a8565b80639a36f93211620000cf5780639a36f93214620002fe5780639b34ae031462000308578063aa6ca808146200033057620001a8565b806392191ce114620002bd57806395a8475114620002d657620001a8565b806353a47bb711620001595780638abe59ea116200012f5780638abe59ea146200027b5780638da5cb5b14620002925780638f4e6f3714620002a657620001a8565b806353a47bb7146200021857806372bcc383146200024557806379ba5097146200027157620001a8565b8063358fac1c116200018f578063358fac1c14620001dd5780633d18b91214620002045780634393a1d7146200020e57620001a8565b80631627540c14620001ad57806327ce5b8c14620001c6575b600080fd5b620001c4620001be36600462001c90565b620003c9565b005b6002545b6040519081526020015b60405180910390f35b7f0000000000000000000000000000000000000000000000000000000000000000620001ca565b620001c462000434565b620001ca60045481565b6001546200022c906001600160a01b031681565b6040516001600160a01b039091168152602001620001d4565b6200022c6200025636600462001ce2565b6008602052600090815260409020546001600160a01b031681565b620001c46200097f565b6200022c6200028c36600462001e31565b62000a80565b6000546200022c906001600160a01b031681565b620001c4620002b736600462001c90565b62000aab565b620002c762000b36565b604051620001d4919062001eb2565b620001ca7f000000000000000000000000000000000000000000000000000000000000000081565b620001ca60075481565b600554620003169060801b81565b6040516001600160801b03199091168152602001620001d4565b6200033a620011bc565b604051620001d4919062001e63565b600454620001ca565b620001ca60065481565b620003166200036d36600462001e31565b62001220565b620001c46200038436600462001d20565b62001258565b6200022c7f000000000000000000000000000000000000000000000000000000000000000081565b620001c4620003c336600462001d4e565b620019ef565b620003d362001b44565b6001805473ffffffffffffffffffffffffffffffffffffffff19166001600160a01b0383169081179091556040519081527f906a1c6bd7e3091ea86693dd029a831c19049ce77f1dce2ce0bab1cacbabce229060200160405180910390a150565b60055460801b6001600160801b03191662000459576200045362001bc8565b62000460565b60055460801b5b600580546001600160801b03191660809290921c919091179055336000908152600a602052604090205460ff1615620004e05760405162461bcd60e51b815260206004820152601460248201527f5553455220414c524541445920434c41494d454400000000000000000000000060448201526064015b60405180910390fd5b336000818152600a60209081526040808320805460017fffffffffffffffffffffffffffffffffffffffffffffffffffffffffffffff0090911617905560055460801b6001600160801b031916835260089091528082205490516370a0823160e01b8152600481019390935290916001600160a01b03909116906370a082319060240160206040518083038186803b1580156200057c57600080fd5b505afa15801562000591573d6000803e3d6000fd5b505050506040513d601f19601f82011682018060405250810190620005b7919062001e4a565b60055460801b6001600160801b03191660009081526008602090815260408083205481516318160ddd60e01b8152915194955092936001600160a01b03909316926318160ddd92600480840193919291829003018186803b1580156200061c57600080fd5b505afa15801562000631573d6000803e3d6000fd5b505050506040513d601f19601f8201168201806040525081019062000657919062001e4a565b905080156200066757806200066a565b60015b9050600081600954846200067f919062002013565b6200068b919062001ff2565b60055460801b6001600160801b0319166000908152600860205260408082205490516370a0823160e01b815233600482015292935090916001600160a01b03909116906370a082319060240160206040518083038186803b158015620006f057600080fd5b505afa15801562000705573d6000803e3d6000fd5b505050506040513d601f19601f820116820180604052508101906200072b919062001e4a565b60055460801b6001600160801b031916600090815260086020526040908190205490517f23b872dd000000000000000000000000000000000000000000000000000000008152336004820152306024820152604481018390529192506001600160a01b0316906323b872dd90606401602060405180830381600087803b158015620007b557600080fd5b505af1158015620007ca573d6000803e3d6000fd5b505050506040513d601f19601f82011682018060405250810190620007f0919062001cc0565b620008645760405162461bcd60e51b815260206004820152602360248201527f4d4152533a204641494c454420544f205452414e534645522046524f4d20425560448201527f59455200000000000000000000000000000000000000000000000000000000006064820152608401620004d7565b6040517fa9059cbb000000000000000000000000000000000000000000000000000000008152336004820152602481018390527f00000000000000000000000000000000000000000000000000000000000000006001600160a01b03169063a9059cbb90604401602060405180830381600087803b158015620008e657600080fd5b505af1158015620008fb573d6000803e3d6000fd5b505050506040513d601f19601f8201168201806040525081019062000921919062001cc0565b620009795760405162461bcd60e51b815260206004820152602160248201527f4d4152533a204641494c454420544f205452414e5346455220544f20425559456044820152602960f91b6064820152608401620004d7565b50505050565b6001546001600160a01b0316331462000a015760405162461bcd60e51b815260206004820152603260248201527f4d4152533a204f6e6c79206e6f6d696e61746564206163636f756e747320636160448201527f6e20616363657074206f776e65727368697000000000000000000000000000006064820152608401620004d7565b600054600154604080516001600160a01b0393841681529290911660208301527fb532073b38c83145e3e5135377a08bf9aab55bc0fd7c1179cd4fb995d2a5159c910160405180910390a1600180546000805473ffffffffffffffffffffffffffffffffffffffff199081166001600160a01b03841617909155169055565b6003818154811062000a9157600080fd5b6000918252602090912001546001600160a01b0316905081565b600c546001600160a01b0316331462000b075760405162461bcd60e51b815260206004820181905260248201527f4f4e4c5920474f5645524e45522043414e20444f205448495320414354494f4e6044820152606401620004d7565b600b805473ffffffffffffffffffffffffffffffffffffffff19166001600160a01b0392909216919091179055565b60025460609060009067ffffffffffffffff81111562000b6657634e487b7160e01b600052604160045260246000fd5b60405190808252806020026020018201604052801562000bc157816020015b6040805160a08101825260008082526020808301829052928201819052606082018190526080820152825260001990920191018162000b855790505b50905060005b600254811015620011b6576002818154811062000bf457634e487b7160e01b600052603260045260246000fd5b90600052602060002090600291828204019190066010029054906101000a900460801b82828151811062000c3857634e487b7160e01b600052603260045260246000fd5b60209081029190910101516001600160801b03199091169052600280546008916000918490811062000c7a57634e487b7160e01b600052603260045260246000fd5b6000918252602080832060028304015460019092166010026101000a90910460801b6001600160801b031916835282019290925260409081019091205490516370a0823160e01b81523360048201526001600160a01b03909116906370a082319060240160206040518083038186803b15801562000cf757600080fd5b505afa15801562000d0c573d6000803e3d6000fd5b505050506040513d601f19601f8201168201806040525081019062000d32919062001e4a565b82828151811062000d5357634e487b7160e01b600052603260045260246000fd5b602002602001015160400181815250506000600860006002848154811062000d8b57634e487b7160e01b600052603260045260246000fd5b6000918252602080832060028304015460019092166010026101000a90910460801b6001600160801b031916835282810193909352604091820190205481516318160ddd60e01b815291516001600160a01b03909116926318160ddd9260048082019391829003018186803b15801562000e0457600080fd5b505afa15801562000e19573d6000803e3d6000fd5b505050506040513d601f19601f8201168201806040525081019062000e3f919062001e4a565b90508015620010ce576000600860006002858154811062000e7057634e487b7160e01b600052603260045260246000fd5b6000918252602080832060028304015460019092166010026101000a90910460801b6001600160801b031916835282810193909352604091820190205481516318160ddd60e01b815291516001600160a01b03909116926318160ddd9260048082019391829003018186803b15801562000ee957600080fd5b505afa15801562000efe573d6000803e3d6000fd5b505050506040513d601f19601f8201168201806040525081019062000f24919062001e4a565b600954600860006002878154811062000f4d57634e487b7160e01b600052603260045260246000fd5b6000918252602080832060028304015460019092166010026101000a90910460801b6001600160801b031916835282019290925260409081019091205490516370a0823160e01b81523360048201526001600160a01b03909116906370a082319060240160206040518083038186803b15801562000fca57600080fd5b505afa15801562000fdf573d6000803e3d6000fd5b505050506040513d601f19601f8201168201806040525081019062001005919062001e4a565b62001011919062002013565b6200101d919062001ff2565b60055490915060801b6001600160801b0319161580620010935750600283815481106200105a57634e487b7160e01b600052603260045260246000fd5b6000918252602090912060028204015460055460019092166010026101000a9004608090811b6001600160801b03199081169290911b16145b15620010cc5780848481518110620010bb57634e487b7160e01b600052603260045260246000fd5b602002602001015160600181815250505b505b600560009054906101000a900460801b6fffffffffffffffffffffffffffffffff1916600283815481106200111357634e487b7160e01b600052603260045260246000fd5b90600052602060002090600291828204019190066010029054906101000a900460801b6fffffffffffffffffffffffffffffffff191614620011575760006200116b565b336000908152600a602052604090205460ff165b8383815181106200118c57634e487b7160e01b600052603260045260246000fd5b60209081029190910101519015156080909101525080620011ad8162002035565b91505062000bc7565b50905090565b606060038054806020026020016040519081016040528092919081815260200182805480156200121657602002820191906000526020600020905b81546001600160a01b03168152600190910190602001808311620011f7575b5050505050905090565b600281815481106200123157600080fd5b9060005260206000209060029182820401919006601002915054906101000a900460801b81565b8162001284816001600160801b0319166000908152600860205260409020546001600160a01b03161590565b15620012d35760405162461bcd60e51b815260206004820152601960248201527f4d4152533a204f5554434f4d45204e4f5420444546494e4544000000000000006044820152606401620004d7565b7f00000000000000000000000000000000000000000000000000000000000000004210620013445760405162461bcd60e51b815260206004820181905260248201527f4d4152533a2050524544494354494f4e2054494d4520484153205041535345446044820152606401620004d7565b6040517f23b872dd000000000000000000000000000000000000000000000000000000008152336004820152306024820152604481018390527f00000000000000000000000000000000000000000000000000000000000000006001600160a01b0316906323b872dd90606401602060405180830381600087803b158015620013cc57600080fd5b505af1158015620013e1573d6000803e3d6000fd5b505050506040513d601f19601f8201168201806040525081019062001407919062001cc0565b6200147b5760405162461bcd60e51b815260206004820152602360248201527f4d4152533a204641494c454420544f205452414e534645522046524f4d20425560448201527f59455200000000000000000000000000000000000000000000000000000000006064820152608401620004d7565b60025460009067ffffffffffffffff811115620014a857634e487b7160e01b600052604160045260246000fd5b604051908082528060200260200182016040528015620014d2578160200160208202803683370190505b509050600080600060075460065487620014ed919062002013565b620014f9919062001ff2565b905062001876565b600254811015620016bd5760086000600283815481106200153257634e487b7160e01b600052603260045260246000fd5b6000918252602080832060028304015460019092166010026101000a90910460801b6001600160801b031916835282810193909352604091820190205481516318160ddd60e01b815291516001600160a01b03909116926318160ddd9260048082019391829003018186803b158015620015ab57600080fd5b505afa158015620015c0573d6000803e3d6000fd5b505050506040513d601f19601f82011682018060405250810190620015e6919062001e4a565b8582815181106200160757634e487b7160e01b600052603260045260246000fd5b6020026020010181815250508481815181106200163457634e487b7160e01b600052603260045260246000fd5b60200260200101518362001649919062001fd7565b9250838582815181106200166d57634e487b7160e01b600052603260045260246000fd5b60200260200101511115620016a8578481815181106200169d57634e487b7160e01b600052603260045260246000fd5b602002602001015193505b80620016b48162002035565b91505062001501565b50600586600954620016d0919062001fd7565b620016dd90600462002013565b620016e9919062001ff2565b620016f5878562001fd7565b116200170057600080fd5b6001600160801b03198716600090815260086020526040908190205490517f40c10f19000000000000000000000000000000000000000000000000000000008152336004820152602481018390526001600160a01b03909116906340c10f1990604401602060405180830381600087803b1580156200177e57600080fd5b505af115801562001793573d6000803e3d6000fd5b505050506040513d601f19601f82011682018060405250810190620017b9919062001cc0565b620018115760405162461bcd60e51b815260206004820152602160248201527f4d4152533a204641494c454420544f205452414e5346455220544f20425559456044820152602960f91b6064820152608401620004d7565b604080516001600160801b0319891681526020810183905233917fb402b7987e9ce78d4b96d9828d7c2c27c1c91033f0365ccf578f1c1806ccf583910160405180910390a280600960008282546200186a919062001fd7565b90915550620019e69050565b6001600160801b03198716600090815260086020526040908190205490517f40c10f19000000000000000000000000000000000000000000000000000000008152336004820152602481018390526001600160a01b03909116906340c10f1990604401602060405180830381600087803b158015620018f457600080fd5b505af115801562001909573d6000803e3d6000fd5b505050506040513d601f19601f820116820180604052508101906200192f919062001cc0565b620019875760405162461bcd60e51b815260206004820152602160248201527f4d4152533a204641494c454420544f205452414e5346455220544f20425559456044820152602960f91b6064820152608401620004d7565b604080516001600160801b0319891681526020810183905233917fb402b7987e9ce78d4b96d9828d7c2c27c1c91033f0365ccf578f1c1806ccf583910160405180910390a28060096000828254620019e0919062001fd7565b90915550505b50505050505050565b620019f962001b44565b600280546001808201835560008381527f405787fa12a823e0f2b7631cc41b3ba8828b3321ca811111fa75cd3aa3bb5ace9383049390930180546fffffffffffffffffffffffffffffffff929093166010026101000a91820219909216608087901c919091021790556040516001600160801b031985166020820152603001604051602081830303815290604052601260405162001a979062001c82565b62001aa492919062001f30565b604051809103906000f08015801562001ac1573d6000803e3d6000fd5b5060038054600181019091557fc2575a0e9e593c00f959f8c92f12db2869c3395a3b0502d05e2516446f71f85b0180546001600160a01b0390921673ffffffffffffffffffffffffffffffffffffffff1992831681179091556001600160801b031990951660009081526008602052604090208054909116909417909355505050565b6000546001600160a01b0316331462001bc65760405162461bcd60e51b815260206004820152603560248201527f4d4152533a204f6e6c792074686520636f6e7472616374206f776e6572206d6160448201527f7920706572666f726d207468697320616374696f6e00000000000000000000006064820152608401620004d7565b565b600b546040517f215b6c230000000000000000000000000000000000000000000000000000000081523060048201526000916001600160a01b03169063215b6c2390602401602060405180830381600087803b15801562001c2857600080fd5b505af115801562001c3d573d6000803e3d6000fd5b505050506040513d601f19601f8201168201806040525081019062001c63919062001d01565b600580546001600160801b031916608092831c1790819055901b919050565b610b55806200209a83390190565b60006020828403121562001ca2578081fd5b81356001600160a01b038116811462001cb9578182fd5b9392505050565b60006020828403121562001cd2578081fd5b8151801515811462001cb9578182fd5b60006020828403121562001cf4578081fd5b813562001cb9816200207f565b60006020828403121562001d13578081fd5b815162001cb9816200207f565b6000806040838503121562001d33578081fd5b823562001d40816200207f565b946020939093013593505050565b60008060006060848603121562001d63578081fd5b833562001d70816200207f565b9250602084013560ff8116811462001d86578182fd5b9150604084013567ffffffffffffffff8082111562001da3578283fd5b818601915086601f83011262001db7578283fd5b81358181111562001dcc5762001dcc62002069565b604051601f8201601f19908116603f0116810190838211818310171562001df75762001df762002069565b8160405282815289602084870101111562001e10578586fd5b82602086016020830137856020848301015280955050505050509250925092565b60006020828403121562001e43578081fd5b5035919050565b60006020828403121562001e5c578081fd5b5051919050565b6020808252825182820181905260009190848201906040850190845b8181101562001ea65783516001600160a01b03168352928401929184019160010162001e7f565b50909695505050505050565b602080825282518282018190526000919060409081850190868401855b8281101562001f2357815180516001600160801b03191685528681015115158786015285810151868601526060808201519086015260809081015115159085015260a0909301929085019060010162001ecf565b5091979650505050505050565b6000606082528351806060840152815b8181101562001f5f576020818701810151608086840101520162001f40565b8181111562001f715782608083860101525b50601f01601f1916820162001f8b602084018560ff169052565b608083820301604084015262001fce60808201600381527f4d504f0000000000000000000000000000000000000000000000000000000000602082015260400190565b95945050505050565b6000821982111562001fed5762001fed62002053565b500190565b6000826200200e57634e487b7160e01b81526012600452602481fd5b500490565b600081600019048311821515161562002030576200203062002053565b500290565b60006000198214156200204c576200204c62002053565b5060010190565b634e487b7160e01b600052601160045260246000fd5b634e487b7160e01b600052604160045260246000fd5b6001600160801b0319811681146200209657600080fd5b5056fe60806040523480156200001157600080fd5b5060405162000b5538038062000b558339810160408190526200003491620001e3565b600080546001600160a01b0319163317905582516200005b9060039060208601906200008a565b506004805460ff191660ff84161790558051620000809060059060208401906200008a565b50505050620002b6565b828054620000989062000263565b90600052602060002090601f016020900481019282620000bc576000855562000107565b82601f10620000d757805160ff191683800117855562000107565b8280016001018555821562000107579182015b8281111562000107578251825591602001919060010190620000ea565b506200011592915062000119565b5090565b5b808211156200011557600081556001016200011a565b600082601f83011262000141578081fd5b81516001600160401b03808211156200015e576200015e620002a0565b604051601f8301601f19908116603f01168101908282118183101715620001895762000189620002a0565b81604052838152602092508683858801011115620001a5578485fd5b8491505b83821015620001c85785820183015181830184015290820190620001a9565b83821115620001d957848385830101525b9695505050505050565b600080600060608486031215620001f8578283fd5b83516001600160401b03808211156200020f578485fd5b6200021d8783880162000130565b94506020860151915060ff8216821462000235578384fd5b6040860151919350808211156200024a578283fd5b50620002598682870162000130565b9150509250925092565b6002810460018216806200027857607f821691505b602082108114156200029a57634e487b7160e01b600052602260045260246000fd5b50919050565b634e487b7160e01b600052604160045260246000fd5b61088f80620002c66000396000f3fe608060405234801561001057600080fd5b50600436106100d45760003560e01c806340c10f191161008157806395d89b411161005b57806395d89b41146101d4578063a9059cbb146101dc578063dd62ed3e146101ef576100d4565b806340c10f19146101835780635c6581651461019657806370a08231146101c1576100d4565b806323b872dd116100b257806323b872dd1461013157806327e235e314610144578063313ce56714610164576100d4565b806306fdde03146100d9578063095ea7b3146100f757806318160ddd1461011a575b600080fd5b6100e1610228565b6040516100ee9190610736565b60405180910390f35b61010a61010536600461070d565b6102b6565b60405190151581526020016100ee565b61012360065481565b6040519081526020016100ee565b61010a61013f3660046106d2565b610322565b61012361015236600461067f565b60016020526000908152604090205481565b6004546101719060ff1681565b60405160ff90911681526020016100ee565b61010a61019136600461070d565b61047f565b6101236101a43660046106a0565b600260209081526000928352604080842090915290825290205481565b6101236101cf36600461067f565b610592565b6100e16105b1565b61010a6101ea36600461070d565b6105be565b6101236101fd3660046106a0565b6001600160a01b03918216600090815260026020908152604080832093909416825291909152205490565b60038054610235906107d6565b80601f0160208091040260200160405190810160405280929190818152602001828054610261906107d6565b80156102ae5780601f10610283576101008083540402835291602001916102ae565b820191906000526020600020905b81548152906001019060200180831161029157829003601f168201915b505050505081565b3360008181526002602090815260408083206001600160a01b038716808552925280832085905551919290917f8c5be1e5ebec7d5bd14f71427d1e84f3dd0314c0f7b2291e5b200ac8c7c3b925906103119086815260200190565b60405180910390a350600192915050565b6001600160a01b0383166000818152600260209081526040808320338452825280832054938352600190915281205490919083118015906103635750828110155b61036c57600080fd5b6001600160a01b038416600090815260016020526040812080548592906103949084906107a7565b90915550506001600160a01b038516600090815260016020526040812080548592906103c19084906107bf565b90915550507fffffffffffffffffffffffffffffffffffffffffffffffffffffffffffffffff811015610427576001600160a01b0385166000908152600260209081526040808320338452909152812080548592906104219084906107bf565b90915550505b836001600160a01b0316856001600160a01b03167fddf252ad1be2c89b69c2b068fc378daa952ba7f163c4a11628f55a4df523b3ef8560405161046c91815260200190565b60405180910390a3506001949350505050565b600080546001600160a01b031633146104f8576040517f08c379a000000000000000000000000000000000000000000000000000000000815260206004820152601d60248201527f4f4e4c5920474f5645524e4f522043414e204d494e5420544f4b454e53000000604482015260640160405180910390fd5b816006600082825461050a91906107a7565b90915550506001600160a01b038316600090815260016020526040812080548492906105379084906107a7565b90915550506006546040516001600160a01b038516917f4c209b5fc8ad50758f13e2e1088ba56a560dff690a1c6fef26394f4c03821c4f9161058191868252602082015260400190565b60405180910390a250600192915050565b6001600160a01b0381166000908152600160205260409020545b919050565b60058054610235906107d6565b336000908152600160205260408120548211156105da57600080fd5b33600090815260016020526040812080548492906105f99084906107bf565b90915550506001600160a01b038316600090815260016020526040812080548492906106269084906107a7565b90915550506040518281526001600160a01b0384169033907fddf252ad1be2c89b69c2b068fc378daa952ba7f163c4a11628f55a4df523b3ef90602001610311565b80356001600160a01b03811681146105ac57600080fd5b600060208284031215610690578081fd5b61069982610668565b9392505050565b600080604083850312156106b2578081fd5b6106bb83610668565b91506106c960208401610668565b90509250929050565b6000806000606084860312156106e6578081fd5b6106ef84610668565b92506106fd60208501610668565b9150604084013590509250925092565b6000806040838503121561071f578182fd5b61072883610668565b946020939093013593505050565b6000602080835283518082850152825b8181101561076257858101830151858201604001528201610746565b818111156107735783604083870101525b50601f017fffffffffffffffffffffffffffffffffffffffffffffffffffffffffffffffe016929092016040019392505050565b600082198211156107ba576107ba61082a565b500190565b6000828210156107d1576107d161082a565b500390565b6002810460018216806107ea57607f821691505b60208210811415610824577f4e487b7100000000000000000000000000000000000000000000000000000000600052602260045260246000fd5b50919050565b7f4e487b7100000000000000000000000000000000000000000000000000000000600052601160045260246000fdfea264697066735822122028b40b6ab2cae6c682176f41d7e2a19c358ea377cece5c2164f46399c025fc4c64736f6c63430008020033a264697066735822122049aa346816a4570fbc2aa7a30f27ca99c43f4eb9bb9707da35814ae556f1897b64736f6c63430008020033",
  "linkReferences": {},
  "deployedLinkReferences": {}
}